{
  "contractName": "mainContract",
  "abi": [
    {
      "inputs": [
        {
          "internalType": "uint64",
          "name": "subscriptionId",
          "type": "uint64"
        }
      ],
      "stateMutability": "nonpayable",
      "type": "constructor"
    },
    {
      "inputs": [
        {
          "internalType": "address",
          "name": "have",
          "type": "address"
        },
        {
          "internalType": "address",
          "name": "want",
          "type": "address"
        }
      ],
      "name": "OnlyCoordinatorCanFulfill",
      "type": "error"
    },
    {
      "anonymous": false,
      "inputs": [
        {
          "indexed": true,
          "internalType": "address",
          "name": "previousOwner",
          "type": "address"
        },
        {
          "indexed": true,
          "internalType": "address",
          "name": "newOwner",
          "type": "address"
        }
      ],
      "name": "OwnershipTransferred",
      "type": "event"
    },
    {
      "anonymous": false,
      "inputs": [
        {
          "indexed": false,
          "internalType": "bool",
          "name": "founLetter",
          "type": "bool"
        }
      ],
      "name": "play",
      "type": "event"
    },
    {
      "anonymous": false,
      "inputs": [
        {
          "indexed": false,
          "internalType": "uint256",
          "name": "_sessionIndex",
          "type": "uint256"
        }
      ],
      "name": "sessionCreated",
      "type": "event"
    },
    {
      "anonymous": false,
      "inputs": [
        {
          "indexed": false,
          "internalType": "uint256",
          "name": "bet",
          "type": "uint256"
        },
        {
          "indexed": false,
          "internalType": "address",
          "name": "winner",
          "type": "address"
        }
      ],
      "name": "sessionEnded",
      "type": "event"
    },
    {
      "anonymous": false,
      "inputs": [
        {
          "indexed": false,
          "internalType": "uint256",
          "name": "_sessionIndex",
          "type": "uint256"
        }
      ],
      "name": "sessionJoined",
      "type": "event"
    },
    {
      "anonymous": false,
      "inputs": [
        {
          "indexed": false,
          "internalType": "uint256",
          "name": "_sessionIndex",
          "type": "uint256"
        }
      ],
      "name": "sessionStarted",
      "type": "event"
    },
    {
      "inputs": [],
      "name": "owner",
      "outputs": [
        {
          "internalType": "address",
          "name": "",
          "type": "address"
        }
      ],
      "stateMutability": "view",
      "type": "function",
      "constant": true
    },
    {
      "inputs": [
        {
          "internalType": "uint256",
          "name": "requestId",
          "type": "uint256"
        },
        {
          "internalType": "uint256[]",
          "name": "randomWords",
          "type": "uint256[]"
        }
      ],
      "name": "rawFulfillRandomWords",
      "outputs": [],
      "stateMutability": "nonpayable",
      "type": "function"
    },
    {
      "inputs": [],
      "name": "renounceOwnership",
      "outputs": [],
      "stateMutability": "nonpayable",
      "type": "function"
    },
    {
      "inputs": [
        {
          "internalType": "uint256",
          "name": "",
          "type": "uint256"
        }
      ],
      "name": "s_randomWords",
      "outputs": [
        {
          "internalType": "uint256",
          "name": "",
          "type": "uint256"
        }
      ],
      "stateMutability": "view",
      "type": "function",
      "constant": true
    },
    {
      "inputs": [],
      "name": "s_requestId",
      "outputs": [
        {
          "internalType": "uint256",
          "name": "",
          "type": "uint256"
        }
      ],
      "stateMutability": "view",
      "type": "function",
      "constant": true
    },
    {
      "inputs": [
        {
          "internalType": "uint256",
          "name": "",
          "type": "uint256"
        }
      ],
      "name": "session",
      "outputs": [
        {
          "internalType": "uint256",
          "name": "bet",
          "type": "uint256"
        },
        {
          "internalType": "uint256",
          "name": "sessionId",
          "type": "uint256"
        },
        {
          "internalType": "address",
          "name": "player1",
          "type": "address"
        },
        {
          "internalType": "address",
          "name": "player2",
          "type": "address"
        },
        {
          "internalType": "uint256",
          "name": "playerTurn",
          "type": "uint256"
        },
        {
          "internalType": "string",
          "name": "word",
          "type": "string"
        },
        {
          "internalType": "bool",
          "name": "isComplete",
          "type": "bool"
        },
        {
          "internalType": "bool",
          "name": "started",
          "type": "bool"
        },
        {
          "internalType": "bool",
          "name": "ended",
          "type": "bool"
        }
      ],
      "stateMutability": "view",
      "type": "function",
      "constant": true
    },
    {
      "inputs": [
        {
          "internalType": "address",
          "name": "newOwner",
          "type": "address"
        }
      ],
      "name": "transferOwnership",
      "outputs": [],
      "stateMutability": "nonpayable",
      "type": "function"
    },
    {
      "inputs": [
        {
          "internalType": "address",
          "name": "",
          "type": "address"
        }
      ],
      "name": "userInfo",
      "outputs": [
        {
          "internalType": "bool",
          "name": "isPlaying",
          "type": "bool"
        },
        {
          "internalType": "bool",
          "name": "isPlayerTurn",
          "type": "bool"
        },
        {
          "internalType": "uint256",
          "name": "sessionId",
          "type": "uint256"
        },
        {
          "internalType": "uint256",
          "name": "score",
          "type": "uint256"
        },
        {
          "internalType": "uint256",
          "name": "currentBet",
          "type": "uint256"
        },
        {
          "internalType": "uint256",
          "name": "nbTry",
          "type": "uint256"
        },
        {
          "internalType": "uint256",
          "name": "withdrawValue",
          "type": "uint256"
        }
      ],
      "stateMutability": "view",
      "type": "function",
      "constant": true
    },
    {
      "stateMutability": "payable",
      "type": "receive",
      "payable": true
    },
    {
      "inputs": [
        {
          "internalType": "string",
          "name": "_word",
          "type": "string"
        }
      ],
      "name": "addWord",
      "outputs": [],
      "stateMutability": "nonpayable",
      "type": "function"
    },
    {
      "inputs": [
        {
          "internalType": "uint256",
          "name": "_bet",
          "type": "uint256"
        }
      ],
      "name": "createSession",
      "outputs": [],
      "stateMutability": "payable",
      "type": "function",
      "payable": true
    },
    {
      "inputs": [
        {
          "internalType": "uint256",
          "name": "_sessionId",
          "type": "uint256"
        }
      ],
      "name": "joinSession",
      "outputs": [],
      "stateMutability": "payable",
      "type": "function",
      "payable": true
    },
    {
      "inputs": [],
      "name": "startSession",
      "outputs": [],
      "stateMutability": "nonpayable",
      "type": "function"
    },
    {
      "inputs": [
        {
          "internalType": "string",
          "name": "_letter",
          "type": "string"
        }
      ],
      "name": "guessWord",
      "outputs": [
        {
          "internalType": "bool",
          "name": "",
          "type": "bool"
        }
      ],
      "stateMutability": "nonpayable",
      "type": "function"
    },
    {
      "inputs": [],
      "name": "withdraw",
      "outputs": [],
      "stateMutability": "nonpayable",
      "type": "function"
    },
    {
      "inputs": [],
      "name": "getWordList",
      "outputs": [
        {
          "internalType": "string[]",
          "name": "",
          "type": "string[]"
        }
      ],
      "stateMutability": "view",
      "type": "function",
      "constant": true
    },
    {
      "inputs": [],
      "name": "getSessionIndex",
      "outputs": [
        {
          "internalType": "uint256",
          "name": "",
          "type": "uint256"
        }
      ],
      "stateMutability": "view",
      "type": "function",
      "constant": true
    }
  ],
  "bytecode": "0x60a0604052736168499c0cffcacd319c818142124b7a15e857ab600260006101000a81548173ffffffffffffffffffffffffffffffffffffffff021916908373ffffffffffffffffffffffffffffffffffffffff1602179055507fd89b2bf150e3b9e13446986e571fb9cab24b13cea0a43ea20a6049a85cc807cc60001b6003557301be23585060835e02b77ef475b0cc51aa1e0709600460006101000a81548173ffffffffffffffffffffffffffffffffffffffff021916908373ffffffffffffffffffffffffffffffffffffffff160217905550620186a0600460146101000a81548163ffffffff021916908363ffffffff1602179055506003600460186101000a81548161ffff021916908361ffff16021790555060006008553480156200012957600080fd5b5060405162003a0c38038062003a0c83398181016040528101906200014f919062000370565b600260009054906101000a900473ffffffffffffffffffffffffffffffffffffffff168073ffffffffffffffffffffffffffffffffffffffff1660808173ffffffffffffffffffffffffffffffffffffffff168152505050620001c7620001bb6200025a60201b60201c565b6200026260201b60201c565b600260009054906101000a900473ffffffffffffffffffffffffffffffffffffffff16600160006101000a81548173ffffffffffffffffffffffffffffffffffffffff021916908373ffffffffffffffffffffffffffffffffffffffff16021790555080600560006101000a81548167ffffffffffffffff021916908367ffffffffffffffff16021790555050620003a2565b600033905090565b60008060009054906101000a900473ffffffffffffffffffffffffffffffffffffffff169050816000806101000a81548173ffffffffffffffffffffffffffffffffffffffff021916908373ffffffffffffffffffffffffffffffffffffffff1602179055508173ffffffffffffffffffffffffffffffffffffffff168173ffffffffffffffffffffffffffffffffffffffff167f8be0079c531659141344cd1fd0a4f28419497f9722a3daafe3b4186f6b6457e060405160405180910390a35050565b600080fd5b600067ffffffffffffffff82169050919050565b6200034a816200032b565b81146200035657600080fd5b50565b6000815190506200036a816200033f565b92915050565b60006020828403121562000389576200038862000326565b5b6000620003998482850162000359565b91505092915050565b608051613647620003c56000396000818161089c01526108f001526136476000f3fe6080604052600436106100f75760003560e01c80638da5cb5b1161008a578063f2fde38b11610059578063f2fde38b14610310578063f6eaffc814610339578063f847cdde14610376578063fe0ae16514610392576100fe565b80638da5cb5b14610238578063a59ed07e14610263578063e89e106a146102a8578063eb87ed51146102d3576100fe565b806326976a94116100c657806326976a94146101b65780633ccfd60b146101e15780634974da81146101f8578063715018a614610221576100fe565b806305991eba1461010357806309c5fee21461011f5780631959a0021461014a5780631fe543e31461018d576100fe565b366100fe57005b600080fd5b61011d600480360381019061011891906125ef565b6103a9565b005b34801561012b57600080fd5b50610134610765565b6040516101419190612777565b60405180910390f35b34801561015657600080fd5b50610171600480360381019061016c91906127f7565b61083e565b604051610184979695949392919061284e565b60405180910390f35b34801561019957600080fd5b506101b460048036038101906101af9190612a05565b61089a565b005b3480156101c257600080fd5b506101cb61095a565b6040516101d89190612a61565b60405180910390f35b3480156101ed57600080fd5b506101f6610964565b005b34801561020457600080fd5b5061021f600480360381019061021a9190612b31565b610ac2565b005b34801561022d57600080fd5b50610236610b7d565b005b34801561024457600080fd5b5061024d610c05565b60405161025a9190612b89565b60405180910390f35b34801561026f57600080fd5b5061028a600480360381019061028591906125ef565b610c2e565b60405161029f99989796959493929190612bee565b60405180910390f35b3480156102b457600080fd5b506102bd610d6b565b6040516102ca9190612a61565b60405180910390f35b3480156102df57600080fd5b506102fa60048036038101906102f59190612b31565b610d71565b6040516103079190612c82565b60405180910390f35b34801561031c57600080fd5b50610337600480360381019061033291906127f7565b611646565b005b34801561034557600080fd5b50610360600480360381019061035b91906125ef565b61173d565b60405161036d9190612a61565b60405180910390f35b610390600480360381019061038b91906125ef565b611761565b005b34801561039e57600080fd5b506103a7611b04565b005b6000600c60008381526020019081526020016000206000015411610402576040517f08c379a00000000000000000000000000000000000000000000000000000000081526004016103f990612ce9565b60405180910390fd5b600b60003373ffffffffffffffffffffffffffffffffffffffff1673ffffffffffffffffffffffffffffffffffffffff16815260200190815260200160002060000160009054906101000a900460ff1615610492576040517f08c379a000000000000000000000000000000000000000000000000000000000815260040161048990612d55565b60405180910390fd5b600c600082815260200190815260200160002060060160029054906101000a900460ff16156104f6576040517f08c379a00000000000000000000000000000000000000000000000000000000081526004016104ed90612dc1565b60405180910390fd5b60003073ffffffffffffffffffffffffffffffffffffffff16600c60008481526020019081526020016000206000015460405161053290612e12565b60006040518083038185875af1925050503d806000811461056f576040519150601f19603f3d011682016040523d82523d6000602084013e610574565b606091505b50509050806105b8576040517f08c379a00000000000000000000000000000000000000000000000000000000081526004016105af90612e73565b60405180910390fd5b81600b60003373ffffffffffffffffffffffffffffffffffffffff1673ffffffffffffffffffffffffffffffffffffffff168152602001908152602001600020600101819055506001600b60003373ffffffffffffffffffffffffffffffffffffffff1673ffffffffffffffffffffffffffffffffffffffff16815260200190815260200160002060000160006101000a81548160ff0219169083151502179055506000600b60003373ffffffffffffffffffffffffffffffffffffffff1673ffffffffffffffffffffffffffffffffffffffff168152602001908152602001600020600401819055506001600c6000600854815260200190815260200160002060060160006101000a81548160ff02191690831515021790555033600c6000600854815260200190815260200160002060030160006101000a81548173ffffffffffffffffffffffffffffffffffffffff021916908373ffffffffffffffffffffffffffffffffffffffff1602179055507f478c4424969dacd2503fd28d2f0274264374479df08abc03563bc63d3d75c716826040516107599190612a61565b60405180910390a15050565b60606007805480602002602001604051908101604052809291908181526020016000905b828210156108355783829060005260206000200180546107a890612ec2565b80601f01602080910402602001604051908101604052809291908181526020018280546107d490612ec2565b80156108215780601f106107f657610100808354040283529160200191610821565b820191906000526020600020905b81548152906001019060200180831161080457829003601f168201915b505050505081526020019060010190610789565b50505050905090565b600b6020528060005260406000206000915090508060000160009054906101000a900460ff16908060000160019054906101000a900460ff16908060010154908060020154908060030154908060040154908060050154905087565b7f000000000000000000000000000000000000000000000000000000000000000073ffffffffffffffffffffffffffffffffffffffff163373ffffffffffffffffffffffffffffffffffffffff161461094c57337f00000000000000000000000000000000000000000000000000000000000000006040517f1cf993f4000000000000000000000000000000000000000000000000000000008152600401610943929190612ef3565b60405180910390fd5b6109568282611df9565b5050565b6000600854905090565b6000600b60003373ffffffffffffffffffffffffffffffffffffffff1673ffffffffffffffffffffffffffffffffffffffff16815260200190815260200160002060050154116109e9576040517f08c379a00000000000000000000000000000000000000000000000000000000081526004016109e090612f68565b60405180910390fd5b6000600b60003373ffffffffffffffffffffffffffffffffffffffff1673ffffffffffffffffffffffffffffffffffffffff1681526020019081526020016000206005015490506000600b60003373ffffffffffffffffffffffffffffffffffffffff1673ffffffffffffffffffffffffffffffffffffffff168152602001908152602001600020600501819055503373ffffffffffffffffffffffffffffffffffffffff166108fc829081150290604051600060405180830381858888f19350505050158015610abe573d6000803e3d6000fd5b5050565b610aca611e3b565b73ffffffffffffffffffffffffffffffffffffffff16610ae8610c05565b73ffffffffffffffffffffffffffffffffffffffff1614610b3e576040517f08c379a0000000000000000000000000000000000000000000000000000000008152600401610b3590612fd4565b60405180910390fd5b600781908060018154018082558091505060019003906000526020600020016000909190919091509080519060200190610b7992919061247d565b5050565b610b85611e3b565b73ffffffffffffffffffffffffffffffffffffffff16610ba3610c05565b73ffffffffffffffffffffffffffffffffffffffff1614610bf9576040517f08c379a0000000000000000000000000000000000000000000000000000000008152600401610bf090612fd4565b60405180910390fd5b610c036000611e43565b565b60008060009054906101000a900473ffffffffffffffffffffffffffffffffffffffff16905090565b600c6020528060005260406000206000915090508060000154908060010154908060020160009054906101000a900473ffffffffffffffffffffffffffffffffffffffff16908060030160009054906101000a900473ffffffffffffffffffffffffffffffffffffffff1690806004015490806005018054610caf90612ec2565b80601f0160208091040260200160405190810160405280929190818152602001828054610cdb90612ec2565b8015610d285780601f10610cfd57610100808354040283529160200191610d28565b820191906000526020600020905b815481529060010190602001808311610d0b57829003601f168201915b5050505050908060060160009054906101000a900460ff16908060060160019054906101000a900460ff16908060060160029054906101000a900460ff16905089565b60065481565b600080600b60003373ffffffffffffffffffffffffffffffffffffffff1673ffffffffffffffffffffffffffffffffffffffff168152602001908152602001600020600101549050600c600082815260200190815260200160002060060160019054906101000a900460ff16610e1c576040517f08c379a0000000000000000000000000000000000000000000000000000000008152600401610e1390613040565b60405180910390fd5b600c600082815260200190815260200160002060060160029054906101000a900460ff1615610e80576040517f08c379a0000000000000000000000000000000000000000000000000000000008152600401610e77906130ac565b60405180910390fd5b600b60003373ffffffffffffffffffffffffffffffffffffffff1673ffffffffffffffffffffffffffffffffffffffff16815260200190815260200160002060000160019054906101000a900460ff16610f0f576040517f08c379a0000000000000000000000000000000000000000000000000000000008152600401610f0690613118565b60405180910390fd5b6001835114610f53576040517f08c379a0000000000000000000000000000000000000000000000000000000008152600401610f4a90613184565b60405180910390fd5b610f5d3384611f07565b15610f9d576040517f08c379a0000000000000000000000000000000000000000000000000000000008152600401610f9490613216565b60405180910390fd5b600080600b60003373ffffffffffffffffffffffffffffffffffffffff1673ffffffffffffffffffffffffffffffffffffffff16815260200190815260200160002060000160016101000a81548160ff021916908315150217905550600b60003373ffffffffffffffffffffffffffffffffffffffff1673ffffffffffffffffffffffffffffffffffffffff1681526020019081526020016000206006018490806001815401808255809150506001900390600052602060002001600090919091909150908051906020019061107492919061247d565b50600b60003373ffffffffffffffffffffffffffffffffffffffff1673ffffffffffffffffffffffffffffffffffffffff16815260200190815260200160002060040160008154809291906110c890613265565b91905055506000600c6000848152602001908152602001600020600401540361122e576000600b6000600c600086815260200190815260200160002060020160009054906101000a900473ffffffffffffffffffffffffffffffffffffffff1673ffffffffffffffffffffffffffffffffffffffff1673ffffffffffffffffffffffffffffffffffffffff16815260200190815260200160002060000160016101000a81548160ff0219169083151502179055506001600b6000600c600086815260200190815260200160002060030160009054906101000a900473ffffffffffffffffffffffffffffffffffffffff1673ffffffffffffffffffffffffffffffffffffffff1673ffffffffffffffffffffffffffffffffffffffff16815260200190815260200160002060000160016101000a81548160ff0219169083151502179055506001600c60008481526020019081526020016000206004018190555061138c565b6001600c6000848152602001908152602001600020600401540361138b576001600b6000600c600086815260200190815260200160002060020160009054906101000a900473ffffffffffffffffffffffffffffffffffffffff1673ffffffffffffffffffffffffffffffffffffffff1673ffffffffffffffffffffffffffffffffffffffff16815260200190815260200160002060000160016101000a81548160ff0219169083151502179055506000600b6000600c600086815260200190815260200160002060030160009054906101000a900473ffffffffffffffffffffffffffffffffffffffff1673ffffffffffffffffffffffffffffffffffffffff1673ffffffffffffffffffffffffffffffffffffffff16815260200190815260200160002060000160016101000a81548160ff0219169083151502179055506000600c6000848152602001908152602001600020600401819055505b5b6001611436600c600085815260200190815260200160002060050180546113b290612ec2565b80601f01602080910402602001604051908101604052809291908181526020018280546113de90612ec2565b801561142b5780601f106114005761010080835404028352916020019161142b565b820191906000526020600020905b81548152906001019060200180831161140e57829003601f168201915b5050505050866120ac565b10611540576114e3600c6000848152602001908152602001600020600501805461145f90612ec2565b80601f016020809104026020016040519081016040528092919081815260200182805461148b90612ec2565b80156114d85780601f106114ad576101008083540402835291602001916114d8565b820191906000526020600020905b8154815290600101906020018083116114bb57829003601f168201915b5050505050856120ac565b600b60003373ffffffffffffffffffffffffffffffffffffffff1673ffffffffffffffffffffffffffffffffffffffff168152602001908152602001600020600201600082825461153491906132ad565b92505081905550600190505b600c6000838152602001908152602001600020600501805461156190612ec2565b9050600b60003373ffffffffffffffffffffffffffffffffffffffff1673ffffffffffffffffffffffffffffffffffffffff1681526020019081526020016000206002015403611605576115b58233612172565b7fe73cb6026e0b33d4d3f765508c052edcdd24b71f47e1e139d7fc3c6a863a698a600c600084815260200190815260200160002060000154336040516115fc929190613303565b60405180910390a15b7fc23c87d5a25465848a2c505b9e3c6f1432b6bd9466341ee0d41e826b49c57636816040516116349190612c82565b60405180910390a18092505050919050565b61164e611e3b565b73ffffffffffffffffffffffffffffffffffffffff1661166c610c05565b73ffffffffffffffffffffffffffffffffffffffff16146116c2576040517f08c379a00000000000000000000000000000000000000000000000000000000081526004016116b990612fd4565b60405180910390fd5b600073ffffffffffffffffffffffffffffffffffffffff168173ffffffffffffffffffffffffffffffffffffffff1603611731576040517f08c379a00000000000000000000000000000000000000000000000000000000081526004016117289061339e565b60405180910390fd5b61173a81611e43565b50565b600a818154811061174d57600080fd5b906000526020600020016000915090505481565b600b60003373ffffffffffffffffffffffffffffffffffffffff1673ffffffffffffffffffffffffffffffffffffffff16815260200190815260200160002060000160009054906101000a900460ff16156117f1576040517f08c379a00000000000000000000000000000000000000000000000000000000081526004016117e890612d55565b60405180910390fd5b60003073ffffffffffffffffffffffffffffffffffffffff168260405161181790612e12565b60006040518083038185875af1925050503d8060008114611854576040519150601f19603f3d011682016040523d82523d6000602084013e611859565b606091505b505090508061189d576040517f08c379a00000000000000000000000000000000000000000000000000000000081526004016118949061340a565b60405180910390fd5b600860008154809291906118b090613265565b919050555081600c60006008548152602001908152602001600020600001819055506040518060400160405280600281526020017f617a000000000000000000000000000000000000000000000000000000000000815250600c60006008548152602001908152602001600020600501908051906020019061193392919061247d565b50600854600c600060085481526020019081526020016000206001018190555033600c6000600854815260200190815260200160002060020160006101000a81548173ffffffffffffffffffffffffffffffffffffffff021916908373ffffffffffffffffffffffffffffffffffffffff1602179055506000600c6000600854815260200190815260200160002060060160026101000a81548160ff0219169083151502179055506001600b60003373ffffffffffffffffffffffffffffffffffffffff1673ffffffffffffffffffffffffffffffffffffffff16815260200190815260200160002060000160006101000a81548160ff021916908315150217905550600854600b60003373ffffffffffffffffffffffffffffffffffffffff1673ffffffffffffffffffffffffffffffffffffffff168152602001908152602001600020600101819055506000600b60003373ffffffffffffffffffffffffffffffffffffffff1673ffffffffffffffffffffffffffffffffffffffff168152602001908152602001600020600401819055507f1037545e264f7d6c7d015e8e70df985e55c9cd204b86bd583f8a667749a8d705600854604051611af89190612a61565b60405180910390a15050565b6000600b60003373ffffffffffffffffffffffffffffffffffffffff1673ffffffffffffffffffffffffffffffffffffffff1681526020019081526020016000206001015490503373ffffffffffffffffffffffffffffffffffffffff16600c600083815260200190815260200160002060020160009054906101000a900473ffffffffffffffffffffffffffffffffffffffff1673ffffffffffffffffffffffffffffffffffffffff1614611bef576040517f08c379a0000000000000000000000000000000000000000000000000000000008152600401611be69061349c565b60405180910390fd5b600c600082815260200190815260200160002060060160009054906101000a900460ff16611c52576040517f08c379a0000000000000000000000000000000000000000000000000000000008152600401611c4990613508565b60405180910390fd5b6001600c600083815260200190815260200160002060060160016101000a81548160ff0219169083151502179055506001600b6000600c600085815260200190815260200160002060020160009054906101000a900473ffffffffffffffffffffffffffffffffffffffff1673ffffffffffffffffffffffffffffffffffffffff1673ffffffffffffffffffffffffffffffffffffffff16815260200190815260200160002060000160016101000a81548160ff0219169083151502179055506000600b6000600c600085815260200190815260200160002060030160009054906101000a900473ffffffffffffffffffffffffffffffffffffffff1673ffffffffffffffffffffffffffffffffffffffff1673ffffffffffffffffffffffffffffffffffffffff16815260200190815260200160002060000160016101000a81548160ff0219169083151502179055506000600c6000838152602001908152602001600020600401819055507f9ff7bc56bfc9f174612251ff607e9a5fbc0fde7a4c90be40f0f0e5fffecfa91581604051611dee9190612a61565b60405180910390a150565b600160078054905082600081518110611e1557611e14613528565b5b6020026020010151611e279190613586565b611e3191906132ad565b6009819055505050565b600033905090565b60008060009054906101000a900473ffffffffffffffffffffffffffffffffffffffff169050816000806101000a81548173ffffffffffffffffffffffffffffffffffffffff021916908373ffffffffffffffffffffffffffffffffffffffff1602179055508173ffffffffffffffffffffffffffffffffffffffff168173ffffffffffffffffffffffffffffffffffffffff167f8be0079c531659141344cd1fd0a4f28419497f9722a3daafe3b4186f6b6457e060405160405180910390a35050565b600080600090505b600b60008573ffffffffffffffffffffffffffffffffffffffff1673ffffffffffffffffffffffffffffffffffffffff168152602001908152602001600020600601805490508110156120a057600b60008573ffffffffffffffffffffffffffffffffffffffff1673ffffffffffffffffffffffffffffffffffffffff1681526020019081526020016000206006018181548110611fb057611faf613528565b5b9060005260206000200160008154611fc790612ec2565b8110611fd657611fd5613528565b5b815460011615611ff55790600052602060002090602091828204019190065b9054901a7f0100000000000000000000000000000000000000000000000000000000000000027effffffffffffffffffffffffffffffffffffffffffffffffffffffffffffff19168360008151811061205157612050613528565b5b602001015160f81c60f81b7effffffffffffffffffffffffffffffffffffffffffffffffffffffffffffff19160361208d5760019150506120a6565b808061209890613265565b915050611f0f565b50600090505b92915050565b6000806000905060005b845181101561216757836000815181106120d3576120d2613528565b5b602001015160f81c60f81b7effffffffffffffffffffffffffffffffffffffffffffffffffffffffffffff191685828151811061211357612112613528565b5b602001015160f81c60f81b7effffffffffffffffffffffffffffffffffffffffffffffffffffffffffffff19160361215457818061215090613265565b9250505b808061215f90613265565b9150506120b6565b508091505092915050565b6001600c600084815260200190815260200160002060060160026101000a81548160ff0219169083151502179055506121e0600c600084815260200190815260200160002060020160009054906101000a900473ffffffffffffffffffffffffffffffffffffffff1661229e565b61221f600c600084815260200190815260200160002060030160009054906101000a900473ffffffffffffffffffffffffffffffffffffffff1661229e565b6002600c60008481526020019081526020016000206000015461224291906135b7565b600b60008373ffffffffffffffffffffffffffffffffffffffff1673ffffffffffffffffffffffffffffffffffffffff168152602001908152602001600020600501600082825461229391906132ad565b925050819055505050565b6000600b60008373ffffffffffffffffffffffffffffffffffffffff1673ffffffffffffffffffffffffffffffffffffffff16815260200190815260200160002060000160006101000a81548160ff0219169083151502179055506000600b60008373ffffffffffffffffffffffffffffffffffffffff1673ffffffffffffffffffffffffffffffffffffffff16815260200190815260200160002060000160016101000a81548160ff0219169083151502179055506000600b60008373ffffffffffffffffffffffffffffffffffffffff1673ffffffffffffffffffffffffffffffffffffffff168152602001908152602001600020600101819055506000600b60008373ffffffffffffffffffffffffffffffffffffffff1673ffffffffffffffffffffffffffffffffffffffff168152602001908152602001600020600201819055506000600b60008373ffffffffffffffffffffffffffffffffffffffff1673ffffffffffffffffffffffffffffffffffffffff16815260200190815260200160002060040181905550600b60008273ffffffffffffffffffffffffffffffffffffffff1673ffffffffffffffffffffffffffffffffffffffff168152602001908152602001600020600601600061247a9190612503565b50565b82805461248990612ec2565b90600052602060002090601f0160209004810192826124ab57600085556124f2565b82601f106124c457805160ff19168380011785556124f2565b828001600101855582156124f2579182015b828111156124f15782518255916020019190600101906124d6565b5b5090506124ff9190612524565b5090565b50805460008255906000526020600020908101906125219190612541565b50565b5b8082111561253d576000816000905550600101612525565b5090565b5b8082111561256157600081816125589190612565565b50600101612542565b5090565b50805461257190612ec2565b6000825580601f1061258357506125a2565b601f0160209004906000526020600020908101906125a19190612524565b5b50565b6000604051905090565b600080fd5b600080fd5b6000819050919050565b6125cc816125b9565b81146125d757600080fd5b50565b6000813590506125e9816125c3565b92915050565b600060208284031215612605576126046125af565b5b6000612613848285016125da565b91505092915050565b600081519050919050565b600082825260208201905092915050565b6000819050602082019050919050565b600081519050919050565b600082825260208201905092915050565b60005b83811015612682578082015181840152602081019050612667565b83811115612691576000848401525b50505050565b6000601f19601f8301169050919050565b60006126b382612648565b6126bd8185612653565b93506126cd818560208601612664565b6126d681612697565b840191505092915050565b60006126ed83836126a8565b905092915050565b6000602082019050919050565b600061270d8261261c565b6127178185612627565b93508360208202850161272985612638565b8060005b85811015612765578484038952815161274685826126e1565b9450612751836126f5565b925060208a0199505060018101905061272d565b50829750879550505050505092915050565b600060208201905081810360008301526127918184612702565b905092915050565b600073ffffffffffffffffffffffffffffffffffffffff82169050919050565b60006127c482612799565b9050919050565b6127d4816127b9565b81146127df57600080fd5b50565b6000813590506127f1816127cb565b92915050565b60006020828403121561280d5761280c6125af565b5b600061281b848285016127e2565b91505092915050565b60008115159050919050565b61283981612824565b82525050565b612848816125b9565b82525050565b600060e082019050612863600083018a612830565b6128706020830189612830565b61287d604083018861283f565b61288a606083018761283f565b612897608083018661283f565b6128a460a083018561283f565b6128b160c083018461283f565b98975050505050505050565b600080fd5b7f4e487b7100000000000000000000000000000000000000000000000000000000600052604160045260246000fd5b6128fa82612697565b810181811067ffffffffffffffff82111715612919576129186128c2565b5b80604052505050565b600061292c6125a5565b905061293882826128f1565b919050565b600067ffffffffffffffff821115612958576129576128c2565b5b602082029050602081019050919050565b600080fd5b600061298161297c8461293d565b612922565b905080838252602082019050602084028301858111156129a4576129a3612969565b5b835b818110156129cd57806129b988826125da565b8452602084019350506020810190506129a6565b5050509392505050565b600082601f8301126129ec576129eb6128bd565b5b81356129fc84826020860161296e565b91505092915050565b60008060408385031215612a1c57612a1b6125af565b5b6000612a2a858286016125da565b925050602083013567ffffffffffffffff811115612a4b57612a4a6125b4565b5b612a57858286016129d7565b9150509250929050565b6000602082019050612a76600083018461283f565b92915050565b600080fd5b600067ffffffffffffffff821115612a9c57612a9b6128c2565b5b612aa582612697565b9050602081019050919050565b82818337600083830152505050565b6000612ad4612acf84612a81565b612922565b905082815260208101848484011115612af057612aef612a7c565b5b612afb848285612ab2565b509392505050565b600082601f830112612b1857612b176128bd565b5b8135612b28848260208601612ac1565b91505092915050565b600060208284031215612b4757612b466125af565b5b600082013567ffffffffffffffff811115612b6557612b646125b4565b5b612b7184828501612b03565b91505092915050565b612b83816127b9565b82525050565b6000602082019050612b9e6000830184612b7a565b92915050565b600082825260208201905092915050565b6000612bc082612648565b612bca8185612ba4565b9350612bda818560208601612664565b612be381612697565b840191505092915050565b600061012082019050612c04600083018c61283f565b612c11602083018b61283f565b612c1e604083018a612b7a565b612c2b6060830189612b7a565b612c38608083018861283f565b81810360a0830152612c4a8187612bb5565b9050612c5960c0830186612830565b612c6660e0830185612830565b612c74610100830184612830565b9a9950505050505050505050565b6000602082019050612c976000830184612830565b92915050565b7f53657373696f6e206572726f7200000000000000000000000000000000000000600082015250565b6000612cd3600d83612ba4565b9150612cde82612c9d565b602082019050919050565b60006020820190508181036000830152612d0281612cc6565b9050919050565b7f596f752061726520616c726561647920706c6179696e67000000000000000000600082015250565b6000612d3f601783612ba4565b9150612d4a82612d09565b602082019050919050565b60006020820190508181036000830152612d6e81612d32565b9050919050565b7f53657373696f6e20697320656e64656400000000000000000000000000000000600082015250565b6000612dab601083612ba4565b9150612db682612d75565b602082019050919050565b60006020820190508181036000830152612dda81612d9e565b9050919050565b600081905092915050565b50565b6000612dfc600083612de1565b9150612e0782612dec565b600082019050919050565b6000612e1d82612def565b9150819050919050565b7f4e6f7420656e6f756774682066756e64732073656e6465640000000000000000600082015250565b6000612e5d601883612ba4565b9150612e6882612e27565b602082019050919050565b60006020820190508181036000830152612e8c81612e50565b9050919050565b7f4e487b7100000000000000000000000000000000000000000000000000000000600052602260045260246000fd5b60006002820490506001821680612eda57607f821691505b602082108103612eed57612eec612e93565b5b50919050565b6000604082019050612f086000830185612b7a565b612f156020830184612b7a565b9392505050565b7f596f752068617665206e6f7468696e6720746f20776974686472617700000000600082015250565b6000612f52601c83612ba4565b9150612f5d82612f1c565b602082019050919050565b60006020820190508181036000830152612f8181612f45565b9050919050565b7f4f776e61626c653a2063616c6c6572206973206e6f7420746865206f776e6572600082015250565b6000612fbe602083612ba4565b9150612fc982612f88565b602082019050919050565b60006020820190508181036000830152612fed81612fb1565b9050919050565b7f5468652073657373696f6e206861736e27742073746172742079657400000000600082015250565b600061302a601c83612ba4565b915061303582612ff4565b602082019050919050565b600060208201905081810360008301526130598161301d565b9050919050565b7f5468652073657373696f6e20697320656e646564000000000000000000000000600082015250565b6000613096601483612ba4565b91506130a182613060565b602082019050919050565b600060208201905081810360008301526130c581613089565b9050919050565b7f49742773206e6f7420796f7572207475726e0000000000000000000000000000600082015250565b6000613102601283612ba4565b915061310d826130cc565b602082019050919050565b60006020820190508181036000830152613131816130f5565b9050919050565b7f49742773206e6f742061206c6574746572000000000000000000000000000000600082015250565b600061316e601183612ba4565b915061317982613138565b602082019050919050565b6000602082019050818103600083015261319d81613161565b9050919050565b7f596f75206861766520616c726561647920757365642074686973206c6574746560008201527f7200000000000000000000000000000000000000000000000000000000000000602082015250565b6000613200602183612ba4565b915061320b826131a4565b604082019050919050565b6000602082019050818103600083015261322f816131f3565b9050919050565b7f4e487b7100000000000000000000000000000000000000000000000000000000600052601160045260246000fd5b6000613270826125b9565b91507fffffffffffffffffffffffffffffffffffffffffffffffffffffffffffffffff82036132a2576132a1613236565b5b600182019050919050565b60006132b8826125b9565b91506132c3836125b9565b9250827fffffffffffffffffffffffffffffffffffffffffffffffffffffffffffffffff038211156132f8576132f7613236565b5b828201905092915050565b6000604082019050613318600083018561283f565b6133256020830184612b7a565b9392505050565b7f4f776e61626c653a206e6577206f776e657220697320746865207a65726f206160008201527f6464726573730000000000000000000000000000000000000000000000000000602082015250565b6000613388602683612ba4565b91506133938261332c565b604082019050919050565b600060208201905081810360008301526133b78161337b565b9050919050565b7f6e6f7420656e6f7567746820666f756e64730000000000000000000000000000600082015250565b60006133f4601283612ba4565b91506133ff826133be565b602082019050919050565b60006020820190508181036000830152613423816133e7565b9050919050565b7f596f7520617265206e6f7420746865206f776e6572206f66206120736573736960008201527f6f6e000000000000000000000000000000000000000000000000000000000000602082015250565b6000613486602283612ba4565b91506134918261342a565b604082019050919050565b600060208201905081810360008301526134b581613479565b9050919050565b7f53657373696f6e206973206e6f7420636f6d706c657465000000000000000000600082015250565b60006134f2601783612ba4565b91506134fd826134bc565b602082019050919050565b60006020820190508181036000830152613521816134e5565b9050919050565b7f4e487b7100000000000000000000000000000000000000000000000000000000600052603260045260246000fd5b7f4e487b7100000000000000000000000000000000000000000000000000000000600052601260045260246000fd5b6000613591826125b9565b915061359c836125b9565b9250826135ac576135ab613557565b5b828206905092915050565b60006135c2826125b9565b91506135cd836125b9565b9250817fffffffffffffffffffffffffffffffffffffffffffffffffffffffffffffffff048311821515161561360657613605613236565b5b82820290509291505056fea26469706673582212207591914e787220a45ffa0312c63a94ff9a771afc3459731a83a2188c91fb36de64736f6c634300080e0033",
  "immutableReferences": {
    "10": [
      {
        "length": 32,
        "start": 2204
      },
      {
        "length": 32,
        "start": 2288
      }
    ]
  },
  "source": "pragma solidity 0.8.14;\r\n\r\nimport \"@openzeppelin/contracts/access/Ownable.sol\";\r\nimport \"@chainlink/contracts/src/v0.8/interfaces/VRFCoordinatorV2Interface.sol\";\r\nimport \"@chainlink/contracts/src/v0.8/VRFConsumerBaseV2.sol\";\r\nimport \"@openzeppelin/contracts/token/ERC20/IERC20.sol\";\r\n\r\ncontract mainContract is VRFConsumerBaseV2, Ownable {\r\n    VRFCoordinatorV2Interface COORDINATOR;\r\n\r\n    address vrfCoordinator = 0x6168499c0cFfCaCD319c818142124B7A15E857ab;\r\n\r\n    bytes32 keyHash =\r\n        0xd89b2bf150e3b9e13446986e571fb9cab24b13cea0a43ea20a6049a85cc807cc;\r\n\r\n    IERC20 LINK = IERC20(0x01BE23585060835E02B77ef475b0Cc51aA1e0709);\r\n\r\n    uint32 callbackGasLimit = 100000;\r\n\r\n    uint16 requestConfirmations = 3;\r\n\r\n    uint64 s_subscriptionId;\r\n\r\n    uint256 public s_requestId;\r\n\r\n    string[] wordList;\r\n\r\n    uint256 sessionIndex = 0;\r\n\r\n    uint256 WordToGuessIndex;\r\n\r\n    uint256[] public s_randomWords;\r\n\r\n    struct UserInfos {\r\n        bool isPlaying;\r\n        bool isPlayerTurn;\r\n        uint256 sessionId;\r\n        uint256 score;\r\n        uint256 currentBet;\r\n        uint256 nbTry;\r\n        uint256 withdrawValue;\r\n        string[] letterGuessed;\r\n    }\r\n\r\n    struct Session {\r\n        uint256 bet;\r\n        uint256 sessionId;\r\n        address player1;\r\n        address player2;\r\n        uint256 playerTurn;\r\n        string word;\r\n        bool isComplete;\r\n        bool started;\r\n        bool ended;\r\n    }\r\n\r\n    mapping(address => UserInfos) public userInfo;\r\n\r\n    mapping(uint256 => Session) public session;\r\n\r\n    event sessionCreated(uint256 _sessionIndex);\r\n\r\n    event sessionJoined(uint256 _sessionIndex);\r\n\r\n    event sessionStarted(uint256 _sessionIndex);\r\n\r\n    event play(bool founLetter);\r\n\r\n    event sessionEnded(uint256 bet, address winner);\r\n\r\n    constructor(uint64 subscriptionId) VRFConsumerBaseV2(vrfCoordinator) {\r\n        COORDINATOR = VRFCoordinatorV2Interface(vrfCoordinator);\r\n        s_subscriptionId = subscriptionId;\r\n    }\r\n\r\n    function addWord(string memory _word) public onlyOwner {\r\n        wordList.push(_word);\r\n    }\r\n\r\n    function createSession(uint256 _bet) public payable {\r\n        require(!userInfo[msg.sender].isPlaying, \"You are already playing\");\r\n        (bool sucess, ) = address(this).call{value: _bet}(\"\");\r\n        require(sucess, \"not enougth founds\");\r\n        // requestRandomWords();\r\n        // string memory wordToGuess = wordList[WordToGuessIndex];\r\n        sessionIndex++;\r\n        session[sessionIndex].bet = _bet;\r\n        session[sessionIndex].word = \"az\";\r\n        session[sessionIndex].sessionId = sessionIndex;\r\n        session[sessionIndex].player1 = msg.sender;\r\n        session[sessionIndex].ended = false;\r\n        userInfo[msg.sender].isPlaying = true;\r\n        userInfo[msg.sender].sessionId = sessionIndex;\r\n        userInfo[msg.sender].nbTry = 0;\r\n        emit sessionCreated(sessionIndex);\r\n    }\r\n\r\n    function joinSession(uint256 _sessionId) public payable {\r\n        require(session[_sessionId].bet > 0, \"Session error\");\r\n        require(!userInfo[msg.sender].isPlaying, \"You are already playing\");\r\n        require(!session[_sessionId].ended, \"Session is ended\");\r\n        (bool sucess, ) = address(this).call{value: session[_sessionId].bet}(\r\n            \"\"\r\n        );\r\n        require(sucess, \"Not enougth funds sended\");\r\n        userInfo[msg.sender].sessionId = _sessionId;\r\n        userInfo[msg.sender].isPlaying = true;\r\n        userInfo[msg.sender].nbTry = 0;\r\n        session[sessionIndex].isComplete = true;\r\n        session[sessionIndex].player2 = msg.sender;\r\n        emit sessionJoined(_sessionId);\r\n    }\r\n\r\n    function startSession() public {\r\n        uint256 index = userInfo[msg.sender].sessionId;\r\n        require(\r\n            session[index].player1 == msg.sender,\r\n            \"You are not the owner of a session\"\r\n        );\r\n        require(session[index].isComplete, \"Session is not complete\");\r\n        session[index].started = true;\r\n        userInfo[session[index].player1].isPlayerTurn = true;\r\n        userInfo[session[index].player2].isPlayerTurn = false;\r\n        session[index].playerTurn = 0;\r\n        emit sessionStarted(index);\r\n    }\r\n\r\n    function guessWord(string memory _letter) public returns (bool) {\r\n        uint256 index = userInfo[msg.sender].sessionId;\r\n\r\n        require(session[index].started, \"The session hasn't start yet\");\r\n        require(!session[index].ended, \"The session is ended\");\r\n        require(userInfo[msg.sender].isPlayerTurn, \"It's not your turn\");\r\n        require(bytes(_letter).length == 1, \"It's not a letter\");\r\n        require(\r\n            !haveUsedThisLetter(msg.sender, _letter),\r\n            \"You have already used this letter\"\r\n        );\r\n\r\n        bool winRound = false;\r\n\r\n        userInfo[msg.sender].isPlayerTurn = false;\r\n\r\n        userInfo[msg.sender].letterGuessed.push(_letter);\r\n\r\n        userInfo[msg.sender].nbTry++;\r\n\r\n        if (session[index].playerTurn == 0) {\r\n            userInfo[session[index].player1].isPlayerTurn = false;\r\n            userInfo[session[index].player2].isPlayerTurn = true;\r\n            session[index].playerTurn = 1;\r\n        } else if (session[index].playerTurn == 1) {\r\n            userInfo[session[index].player1].isPlayerTurn = true;\r\n            userInfo[session[index].player2].isPlayerTurn = false;\r\n            session[index].playerTurn = 0;\r\n        }\r\n\r\n        if (letterIsInWord(session[index].word, _letter) >= 1) {\r\n            userInfo[msg.sender].score += letterIsInWord(\r\n                session[index].word,\r\n                _letter\r\n            );\r\n            winRound = true;\r\n        }\r\n        if (userInfo[msg.sender].score == bytes(session[index].word).length) {\r\n            endSession(index, msg.sender);\r\n            emit sessionEnded(session[index].bet, msg.sender);\r\n        }\r\n\r\n        emit play(winRound);\r\n        return winRound;\r\n    }\r\n\r\n    function endSession(uint256 _sessionId, address winner) internal {\r\n        session[_sessionId].ended = true;\r\n        resetUserInfos(session[_sessionId].player1);\r\n        resetUserInfos(session[_sessionId].player2);\r\n        userInfo[winner].withdrawValue += session[_sessionId].bet * 2;\r\n    }\r\n\r\n    function withdraw() public {\r\n        require(\r\n            userInfo[msg.sender].withdrawValue > 0,\r\n            \"You have nothing to withdraw\"\r\n        );\r\n        uint256 toSend = userInfo[msg.sender].withdrawValue;\r\n        userInfo[msg.sender].withdrawValue = 0;\r\n        payable(msg.sender).transfer(toSend);\r\n    }\r\n\r\n    function haveUsedThisLetter(address _user, string memory _letter)\r\n        internal\r\n        view\r\n        returns (bool)\r\n    {\r\n        for (uint256 i = 0; i < userInfo[_user].letterGuessed.length; i++) {\r\n            if (bytes(_letter)[0] == bytes(userInfo[_user].letterGuessed[i])[0])\r\n                return true;\r\n        }\r\n        return false;\r\n    }\r\n\r\n    function letterIsInWord(string memory _word, string memory _letter)\r\n        internal\r\n        pure\r\n        returns (uint256)\r\n    {\r\n        uint256 isLetter = 0;\r\n        for (uint256 i = 0; i < bytes(_word).length; i++) {\r\n            if (bytes(_word)[i] == bytes(_letter)[0]) isLetter++;\r\n        }\r\n        return isLetter;\r\n    }\r\n\r\n    function resetUserInfos(address user) internal {\r\n        userInfo[user].isPlaying = false;\r\n        userInfo[user].isPlayerTurn = false;\r\n        userInfo[user].sessionId = 0;\r\n        userInfo[user].score = 0;\r\n        userInfo[user].nbTry = 0;\r\n\r\n        delete userInfo[user].letterGuessed;\r\n    }\r\n\r\n    function requestRandomWords() internal {\r\n        s_requestId = COORDINATOR.requestRandomWords(\r\n            keyHash,\r\n            s_subscriptionId,\r\n            requestConfirmations,\r\n            callbackGasLimit,\r\n            uint32(wordList.length)\r\n        );\r\n    }\r\n\r\n    function fulfillRandomWords(\r\n        uint256, /* requestId */\r\n        uint256[] memory randomWords\r\n    ) internal override {\r\n        WordToGuessIndex = (randomWords[0] % wordList.length) + 1;\r\n    }\r\n\r\n    function getWordList() public view returns (string[] memory) {\r\n        return wordList;\r\n    }\r\n\r\n    function getSessionIndex() public view returns (uint256) {\r\n        return sessionIndex;\r\n    }\r\n\r\n    receive() external payable {}\r\n}\r\n",
  "sourcePath": "E:\\Rattrapage\\contracts\\mainContract.sol",
  "compiler": {
    "name": "solc",
    "version": "0.8.14+commit.80d49f37.Emscripten.clang"
  },
  "schemaVersion": "3.4.3",
  "updatedAt": "2022-07-28T15:15:27.406Z",
  "networkType": "ethereum",
  "devdoc": {
    "kind": "dev",
    "methods": {
      "owner()": {
        "details": "Returns the address of the current owner."
      },
      "renounceOwnership()": {
        "details": "Leaves the contract without owner. It will not be possible to call `onlyOwner` functions anymore. Can only be called by the current owner. NOTE: Renouncing ownership will leave the contract without an owner, thereby removing any functionality that is only available to the owner."
      },
      "transferOwnership(address)": {
        "details": "Transfers ownership of the contract to a new account (`newOwner`). Can only be called by the current owner."
      }
    },
    "version": 1
  },
  "userdoc": {
    "kind": "user",
    "methods": {},
    "version": 1
  }
}