{
  "contractName": "mainContract",
  "abi": [
    {
      "inputs": [
        {
          "internalType": "uint64",
          "name": "subscriptionId",
          "type": "uint64"
        }
      ],
      "stateMutability": "nonpayable",
      "type": "constructor"
    },
    {
      "inputs": [
        {
          "internalType": "address",
          "name": "have",
          "type": "address"
        },
        {
          "internalType": "address",
          "name": "want",
          "type": "address"
        }
      ],
      "name": "OnlyCoordinatorCanFulfill",
      "type": "error"
    },
    {
      "anonymous": false,
      "inputs": [
        {
          "indexed": true,
          "internalType": "address",
          "name": "previousOwner",
          "type": "address"
        },
        {
          "indexed": true,
          "internalType": "address",
          "name": "newOwner",
          "type": "address"
        }
      ],
      "name": "OwnershipTransferred",
      "type": "event"
    },
    {
      "anonymous": false,
      "inputs": [
        {
          "indexed": false,
          "internalType": "bool",
          "name": "founLetter",
          "type": "bool"
        }
      ],
      "name": "play",
      "type": "event"
    },
    {
      "anonymous": false,
      "inputs": [
        {
          "indexed": false,
          "internalType": "uint256",
          "name": "_sessionIndex",
          "type": "uint256"
        }
      ],
      "name": "sessionCreated",
      "type": "event"
    },
    {
      "anonymous": false,
      "inputs": [
        {
          "indexed": false,
          "internalType": "uint256",
          "name": "bet",
          "type": "uint256"
        },
        {
          "indexed": false,
          "internalType": "address",
          "name": "winner",
          "type": "address"
        }
      ],
      "name": "sessionEnded",
      "type": "event"
    },
    {
      "anonymous": false,
      "inputs": [
        {
          "indexed": false,
          "internalType": "uint256",
          "name": "_sessionIndex",
          "type": "uint256"
        }
      ],
      "name": "sessionJoined",
      "type": "event"
    },
    {
      "anonymous": false,
      "inputs": [
        {
          "indexed": false,
          "internalType": "uint256",
          "name": "_sessionIndex",
          "type": "uint256"
        }
      ],
      "name": "sessionStarted",
      "type": "event"
    },
    {
      "inputs": [],
      "name": "owner",
      "outputs": [
        {
          "internalType": "address",
          "name": "",
          "type": "address"
        }
      ],
      "stateMutability": "view",
      "type": "function",
      "constant": true
    },
    {
      "inputs": [
        {
          "internalType": "uint256",
          "name": "requestId",
          "type": "uint256"
        },
        {
          "internalType": "uint256[]",
          "name": "randomWords",
          "type": "uint256[]"
        }
      ],
      "name": "rawFulfillRandomWords",
      "outputs": [],
      "stateMutability": "nonpayable",
      "type": "function"
    },
    {
      "inputs": [],
      "name": "renounceOwnership",
      "outputs": [],
      "stateMutability": "nonpayable",
      "type": "function"
    },
    {
      "inputs": [],
      "name": "s_requestId",
      "outputs": [
        {
          "internalType": "uint256",
          "name": "",
          "type": "uint256"
        }
      ],
      "stateMutability": "view",
      "type": "function",
      "constant": true
    },
    {
      "inputs": [
        {
          "internalType": "uint256",
          "name": "",
          "type": "uint256"
        }
      ],
      "name": "session",
      "outputs": [
        {
          "internalType": "uint256",
          "name": "bet",
          "type": "uint256"
        },
        {
          "internalType": "uint256",
          "name": "sessionId",
          "type": "uint256"
        },
        {
          "internalType": "address",
          "name": "player1",
          "type": "address"
        },
        {
          "internalType": "address",
          "name": "player2",
          "type": "address"
        },
        {
          "internalType": "uint256",
          "name": "playerTurn",
          "type": "uint256"
        },
        {
          "internalType": "string",
          "name": "word",
          "type": "string"
        },
        {
          "internalType": "bool",
          "name": "isComplete",
          "type": "bool"
        },
        {
          "internalType": "bool",
          "name": "started",
          "type": "bool"
        },
        {
          "internalType": "bool",
          "name": "ended",
          "type": "bool"
        }
      ],
      "stateMutability": "view",
      "type": "function",
      "constant": true
    },
    {
      "inputs": [
        {
          "internalType": "address",
          "name": "newOwner",
          "type": "address"
        }
      ],
      "name": "transferOwnership",
      "outputs": [],
      "stateMutability": "nonpayable",
      "type": "function"
    },
    {
      "inputs": [
        {
          "internalType": "address",
          "name": "",
          "type": "address"
        }
      ],
      "name": "userInfo",
      "outputs": [
        {
          "internalType": "bool",
          "name": "isPlaying",
          "type": "bool"
        },
        {
          "internalType": "bool",
          "name": "isPlayerTurn",
          "type": "bool"
        },
        {
          "internalType": "uint256",
          "name": "sessionId",
          "type": "uint256"
        },
        {
          "internalType": "uint256",
          "name": "score",
          "type": "uint256"
        },
        {
          "internalType": "uint256",
          "name": "currentBet",
          "type": "uint256"
        },
        {
          "internalType": "uint256",
          "name": "nbTry",
          "type": "uint256"
        },
        {
          "internalType": "uint256",
          "name": "withdrawValue",
          "type": "uint256"
        }
      ],
      "stateMutability": "view",
      "type": "function",
      "constant": true
    },
    {
      "inputs": [
        {
          "internalType": "string",
          "name": "_word",
          "type": "string"
        }
      ],
      "name": "addWord",
      "outputs": [],
      "stateMutability": "nonpayable",
      "type": "function"
    },
    {
      "inputs": [
        {
          "internalType": "uint256",
          "name": "_bet",
          "type": "uint256"
        }
      ],
      "name": "createSession",
      "outputs": [],
      "stateMutability": "payable",
      "type": "function",
      "payable": true
    },
    {
      "inputs": [
        {
          "internalType": "uint256",
          "name": "_sessionId",
          "type": "uint256"
        }
      ],
      "name": "joinSession",
      "outputs": [],
      "stateMutability": "payable",
      "type": "function",
      "payable": true
    },
    {
      "inputs": [
        {
          "internalType": "uint256",
          "name": "_sessionId",
          "type": "uint256"
        }
      ],
      "name": "abortSession",
      "outputs": [],
      "stateMutability": "nonpayable",
      "type": "function"
    },
    {
      "inputs": [],
      "name": "startSession",
      "outputs": [],
      "stateMutability": "nonpayable",
      "type": "function"
    },
    {
      "inputs": [
        {
          "internalType": "string",
          "name": "_letter",
          "type": "string"
        }
      ],
      "name": "guessWord",
      "outputs": [
        {
          "internalType": "bool",
          "name": "",
          "type": "bool"
        }
      ],
      "stateMutability": "nonpayable",
      "type": "function"
    },
    {
      "inputs": [],
      "name": "withdraw",
      "outputs": [],
      "stateMutability": "nonpayable",
      "type": "function"
    },
    {
      "inputs": [],
      "name": "requestRandomWords",
      "outputs": [],
      "stateMutability": "nonpayable",
      "type": "function"
    },
    {
      "inputs": [],
      "name": "getWorkList",
      "outputs": [
        {
          "internalType": "string[]",
          "name": "",
          "type": "string[]"
        }
      ],
      "stateMutability": "view",
      "type": "function",
      "constant": true
    }
  ],
  "bytecode": "0x60a0604052736168499c0cffcacd319c818142124b7a15e857ab600260006101000a81548173ffffffffffffffffffffffffffffffffffffffff021916908373ffffffffffffffffffffffffffffffffffffffff1602179055507fd89b2bf150e3b9e13446986e571fb9cab24b13cea0a43ea20a6049a85cc807cc60001b6003557301be23585060835e02b77ef475b0cc51aa1e0709600460006101000a81548173ffffffffffffffffffffffffffffffffffffffff021916908373ffffffffffffffffffffffffffffffffffffffff160217905550620186a0600460146101000a81548163ffffffff021916908363ffffffff1602179055506003600460186101000a81548161ffff021916908361ffff16021790555060006008553480156200012957600080fd5b5060405162003de938038062003de983398181016040528101906200014f919062000370565b600260009054906101000a900473ffffffffffffffffffffffffffffffffffffffff168073ffffffffffffffffffffffffffffffffffffffff1660808173ffffffffffffffffffffffffffffffffffffffff168152505050620001c7620001bb6200025a60201b60201c565b6200026260201b60201c565b600260009054906101000a900473ffffffffffffffffffffffffffffffffffffffff16600160006101000a81548173ffffffffffffffffffffffffffffffffffffffff021916908373ffffffffffffffffffffffffffffffffffffffff16021790555080600560006101000a81548167ffffffffffffffff021916908367ffffffffffffffff16021790555050620003a2565b600033905090565b60008060009054906101000a900473ffffffffffffffffffffffffffffffffffffffff169050816000806101000a81548173ffffffffffffffffffffffffffffffffffffffff021916908373ffffffffffffffffffffffffffffffffffffffff1602179055508173ffffffffffffffffffffffffffffffffffffffff168173ffffffffffffffffffffffffffffffffffffffff167f8be0079c531659141344cd1fd0a4f28419497f9722a3daafe3b4186f6b6457e060405160405180910390a35050565b600080fd5b600067ffffffffffffffff82169050919050565b6200034a816200032b565b81146200035657600080fd5b50565b6000815190506200036a816200033f565b92915050565b60006020828403121562000389576200038862000326565b5b6000620003998482850162000359565b91505092915050565b608051613a24620003c56000396000818161073501526107890152613a246000f3fe6080604052600436106100f35760003560e01c8063a59ed07e1161008a578063eb87ed5111610059578063eb87ed51146102dd578063f2fde38b1461031a578063f847cdde14610343578063fe0ae1651461035f576100f3565b8063a59ed07e1461022b578063e0c8628914610270578063e7e053fc14610287578063e89e106a146102b2576100f3565b80634974da81116100c65780634974da8114610197578063664b2a38146101c0578063715018a6146101e95780638da5cb5b14610200576100f3565b806305991eba146100f85780631959a002146101145780631fe543e3146101575780633ccfd60b14610180575b600080fd5b610112600480360381019061010d919061280f565b610376565b005b34801561012057600080fd5b5061013b6004803603810190610136919061289a565b6106d7565b60405161014e97969594939291906128f1565b60405180910390f35b34801561016357600080fd5b5061017e60048036038101906101799190612ab9565b610733565b005b34801561018c57600080fd5b506101956107f3565b005b3480156101a357600080fd5b506101be60048036038101906101b99190612bca565b610903565b005b3480156101cc57600080fd5b506101e760048036038101906101e2919061280f565b6109be565b005b3480156101f557600080fd5b506101fe610aa9565b005b34801561020c57600080fd5b50610215610b31565b6040516102229190612c22565b60405180910390f35b34801561023757600080fd5b50610252600480360381019061024d919061280f565b610b5a565b60405161026799989796959493929190612cc5565b60405180910390f35b34801561027c57600080fd5b50610285610c97565b005b34801561029357600080fd5b5061029c610e00565b6040516102a99190612e65565b60405180910390f35b3480156102be57600080fd5b506102c7610ed9565b6040516102d49190612e87565b60405180910390f35b3480156102e957600080fd5b5061030460048036038101906102ff9190612bca565b610edf565b6040516103119190612ea2565b60405180910390f35b34801561032657600080fd5b50610341600480360381019061033c919061289a565b611843565b005b61035d6004803603810190610358919061280f565b61193a565b005b34801561036b57600080fd5b50610374611cdd565b005b6000600a600083815260200190815260200160002060000154116103cf576040517f08c379a00000000000000000000000000000000000000000000000000000000081526004016103c690612f09565b60405180910390fd5b600960003373ffffffffffffffffffffffffffffffffffffffff1673ffffffffffffffffffffffffffffffffffffffff16815260200190815260200160002060000160009054906101000a900460ff161561045f576040517f08c379a000000000000000000000000000000000000000000000000000000000815260040161045690612f75565b60405180910390fd5b600a600082815260200190815260200160002060060160029054906101000a900460ff16156104c3576040517f08c379a00000000000000000000000000000000000000000000000000000000081526004016104ba90612fe1565b60405180910390fd5b60003373ffffffffffffffffffffffffffffffffffffffff16600a6000848152602001908152602001600020600001546040516104ff90613032565b60006040518083038185875af1925050503d806000811461053c576040519150601f19603f3d011682016040523d82523d6000602084013e610541565b606091505b5050905080610585576040517f08c379a000000000000000000000000000000000000000000000000000000000815260040161057c90613093565b60405180910390fd5b81600960003373ffffffffffffffffffffffffffffffffffffffff1673ffffffffffffffffffffffffffffffffffffffff1681526020019081526020016000206001018190555033600a6000600854815260200190815260200160002060030160006101000a81548173ffffffffffffffffffffffffffffffffffffffff021916908373ffffffffffffffffffffffffffffffffffffffff1602179055506001600a6000600854815260200190815260200160002060060160006101000a81548160ff0219169083151502179055506000600960003373ffffffffffffffffffffffffffffffffffffffff1673ffffffffffffffffffffffffffffffffffffffff168152602001908152602001600020600401819055507f478c4424969dacd2503fd28d2f0274264374479df08abc03563bc63d3d75c716826040516106cb9190612e87565b60405180910390a15050565b60096020528060005260406000206000915090508060000160009054906101000a900460ff16908060000160019054906101000a900460ff16908060010154908060020154908060030154908060040154908060050154905087565b7f000000000000000000000000000000000000000000000000000000000000000073ffffffffffffffffffffffffffffffffffffffff163373ffffffffffffffffffffffffffffffffffffffff16146107e557337f00000000000000000000000000000000000000000000000000000000000000006040517f1cf993f40000000000000000000000000000000000000000000000000000000081526004016107dc9291906130b3565b60405180910390fd5b6107ef8282612063565b5050565b6000600960003373ffffffffffffffffffffffffffffffffffffffff1673ffffffffffffffffffffffffffffffffffffffff1681526020019081526020016000206005015411610878576040517f08c379a000000000000000000000000000000000000000000000000000000000815260040161086f90613128565b60405180910390fd5b3373ffffffffffffffffffffffffffffffffffffffff166108fc600960003373ffffffffffffffffffffffffffffffffffffffff1673ffffffffffffffffffffffffffffffffffffffff168152602001908152602001600020600501549081150290604051600060405180830381858888f19350505050158015610900573d6000803e3d6000fd5b50565b61090b612067565b73ffffffffffffffffffffffffffffffffffffffff16610929610b31565b73ffffffffffffffffffffffffffffffffffffffff161461097f576040517f08c379a000000000000000000000000000000000000000000000000000000000815260040161097690613194565b60405180910390fd5b6007819080600181540180825580915050600190039060005260206000200160009091909190915090805190602001906109ba92919061269d565b5050565b80600960003373ffffffffffffffffffffffffffffffffffffffff1673ffffffffffffffffffffffffffffffffffffffff1681526020019081526020016000206001015414610a42576040517f08c379a0000000000000000000000000000000000000000000000000000000008152600401610a3990613200565b60405180910390fd5b600a600082815260200190815260200160002060060160019054906101000a900460ff1615610aa6576040517f08c379a0000000000000000000000000000000000000000000000000000000008152600401610a9d90613292565b60405180910390fd5b50565b610ab1612067565b73ffffffffffffffffffffffffffffffffffffffff16610acf610b31565b73ffffffffffffffffffffffffffffffffffffffff1614610b25576040517f08c379a0000000000000000000000000000000000000000000000000000000008152600401610b1c90613194565b60405180910390fd5b610b2f600061206f565b565b60008060009054906101000a900473ffffffffffffffffffffffffffffffffffffffff16905090565b600a6020528060005260406000206000915090508060000154908060010154908060020160009054906101000a900473ffffffffffffffffffffffffffffffffffffffff16908060030160009054906101000a900473ffffffffffffffffffffffffffffffffffffffff1690806004015490806005018054610bdb906132e1565b80601f0160208091040260200160405190810160405280929190818152602001828054610c07906132e1565b8015610c545780601f10610c2957610100808354040283529160200191610c54565b820191906000526020600020905b815481529060010190602001808311610c3757829003601f168201915b5050505050908060060160009054906101000a900460ff16908060060160019054906101000a900460ff16908060060160029054906101000a900460ff16905089565b610c9f612067565b73ffffffffffffffffffffffffffffffffffffffff16610cbd610b31565b73ffffffffffffffffffffffffffffffffffffffff1614610d13576040517f08c379a0000000000000000000000000000000000000000000000000000000008152600401610d0a90613194565b60405180910390fd5b600160009054906101000a900473ffffffffffffffffffffffffffffffffffffffff1673ffffffffffffffffffffffffffffffffffffffff16635d3b1d30600354600560009054906101000a900467ffffffffffffffff16600460189054906101000a900461ffff16600460149054906101000a900463ffffffff166007805490506040518663ffffffff1660e01b8152600401610db595949392919061338a565b6020604051808303816000875af1158015610dd4573d6000803e3d6000fd5b505050506040513d601f19601f82011682018060405250810190610df891906133f2565b600681905550565b60606007805480602002602001604051908101604052809291908181526020016000905b82821015610ed0578382906000526020600020018054610e43906132e1565b80601f0160208091040260200160405190810160405280929190818152602001828054610e6f906132e1565b8015610ebc5780601f10610e9157610100808354040283529160200191610ebc565b820191906000526020600020905b815481529060010190602001808311610e9f57829003601f168201915b505050505081526020019060010190610e24565b50505050905090565b60065481565b600080600960003373ffffffffffffffffffffffffffffffffffffffff1673ffffffffffffffffffffffffffffffffffffffff168152602001908152602001600020600101549050600a600082815260200190815260200160002060060160019054906101000a900460ff16610f8a576040517f08c379a0000000000000000000000000000000000000000000000000000000008152600401610f819061346b565b60405180910390fd5b600a600082815260200190815260200160002060060160029054906101000a900460ff1615610fee576040517f08c379a0000000000000000000000000000000000000000000000000000000008152600401610fe5906134d7565b60405180910390fd5b600960003373ffffffffffffffffffffffffffffffffffffffff1673ffffffffffffffffffffffffffffffffffffffff16815260200190815260200160002060000160019054906101000a900460ff1661107d576040517f08c379a000000000000000000000000000000000000000000000000000000000815260040161107490613543565b60405180910390fd5b60018351146110c1576040517f08c379a00000000000000000000000000000000000000000000000000000000081526004016110b8906135af565b60405180910390fd5b6110cb3384612133565b1561110b576040517f08c379a000000000000000000000000000000000000000000000000000000000815260040161110290613641565b60405180910390fd5b600960003373ffffffffffffffffffffffffffffffffffffffff1673ffffffffffffffffffffffffffffffffffffffff16815260200190815260200160002060000160019054906101000a900460ff1661119a576040517f08c379a0000000000000000000000000000000000000000000000000000000008152600401611191906136ad565b60405180910390fd5b600080600960003373ffffffffffffffffffffffffffffffffffffffff1673ffffffffffffffffffffffffffffffffffffffff16815260200190815260200160002060000160016101000a81548160ff021916908315150217905550600960003373ffffffffffffffffffffffffffffffffffffffff1673ffffffffffffffffffffffffffffffffffffffff1681526020019081526020016000206006018490806001815401808255809150506001900390600052602060002001600090919091909150908051906020019061127192919061269d565b50600960003373ffffffffffffffffffffffffffffffffffffffff1673ffffffffffffffffffffffffffffffffffffffff16815260200190815260200160002060040160008154809291906112c5906136fc565b91905055506000600a6000848152602001908152602001600020600401540361142b57600060096000600a600086815260200190815260200160002060020160009054906101000a900473ffffffffffffffffffffffffffffffffffffffff1673ffffffffffffffffffffffffffffffffffffffff1673ffffffffffffffffffffffffffffffffffffffff16815260200190815260200160002060000160016101000a81548160ff021916908315150217905550600160096000600a600086815260200190815260200160002060030160009054906101000a900473ffffffffffffffffffffffffffffffffffffffff1673ffffffffffffffffffffffffffffffffffffffff1673ffffffffffffffffffffffffffffffffffffffff16815260200190815260200160002060000160016101000a81548160ff0219169083151502179055506001600a600084815260200190815260200160002060040181905550611589565b6001600a6000848152602001908152602001600020600401540361158857600160096000600a600086815260200190815260200160002060020160009054906101000a900473ffffffffffffffffffffffffffffffffffffffff1673ffffffffffffffffffffffffffffffffffffffff1673ffffffffffffffffffffffffffffffffffffffff16815260200190815260200160002060000160016101000a81548160ff021916908315150217905550600060096000600a600086815260200190815260200160002060030160009054906101000a900473ffffffffffffffffffffffffffffffffffffffff1673ffffffffffffffffffffffffffffffffffffffff1673ffffffffffffffffffffffffffffffffffffffff16815260200190815260200160002060000160016101000a81548160ff0219169083151502179055506000600a6000848152602001908152602001600020600401819055505b5b6001611633600a600085815260200190815260200160002060050180546115af906132e1565b80601f01602080910402602001604051908101604052809291908181526020018280546115db906132e1565b80156116285780601f106115fd57610100808354040283529160200191611628565b820191906000526020600020905b81548152906001019060200180831161160b57829003601f168201915b5050505050866122d8565b1061173d576116e0600a6000848152602001908152602001600020600501805461165c906132e1565b80601f0160208091040260200160405190810160405280929190818152602001828054611688906132e1565b80156116d55780601f106116aa576101008083540402835291602001916116d5565b820191906000526020600020905b8154815290600101906020018083116116b857829003601f168201915b5050505050856122d8565b600960003373ffffffffffffffffffffffffffffffffffffffff1673ffffffffffffffffffffffffffffffffffffffff16815260200190815260200160002060020160008282546117319190613744565b92505081905550600190505b600a6000838152602001908152602001600020600501805461175e906132e1565b9050600960003373ffffffffffffffffffffffffffffffffffffffff1673ffffffffffffffffffffffffffffffffffffffff1681526020019081526020016000206002015403611802576117b2823361239e565b7fe73cb6026e0b33d4d3f765508c052edcdd24b71f47e1e139d7fc3c6a863a698a600a600084815260200190815260200160002060000154336040516117f992919061379a565b60405180910390a15b7fc23c87d5a25465848a2c505b9e3c6f1432b6bd9466341ee0d41e826b49c57636816040516118319190612ea2565b60405180910390a18092505050919050565b61184b612067565b73ffffffffffffffffffffffffffffffffffffffff16611869610b31565b73ffffffffffffffffffffffffffffffffffffffff16146118bf576040517f08c379a00000000000000000000000000000000000000000000000000000000081526004016118b690613194565b60405180910390fd5b600073ffffffffffffffffffffffffffffffffffffffff168173ffffffffffffffffffffffffffffffffffffffff160361192e576040517f08c379a000000000000000000000000000000000000000000000000000000000815260040161192590613835565b60405180910390fd5b6119378161206f565b50565b60003373ffffffffffffffffffffffffffffffffffffffff168260405161196090613032565b60006040518083038185875af1925050503d806000811461199d576040519150601f19603f3d011682016040523d82523d6000602084013e6119a2565b606091505b50509050600960003373ffffffffffffffffffffffffffffffffffffffff1673ffffffffffffffffffffffffffffffffffffffff16815260200190815260200160002060000160009054906101000a900460ff1615611a36576040517f08c379a0000000000000000000000000000000000000000000000000000000008152600401611a2d90612f75565b60405180910390fd5b80611a76576040517f08c379a0000000000000000000000000000000000000000000000000000000008152600401611a6d906138a1565b60405180910390fd5b60086000815480929190611a89906136fc565b919050555081600a60006008548152602001908152602001600020600001819055506040518060400160405280600281526020017f617a000000000000000000000000000000000000000000000000000000000000815250600a600060085481526020019081526020016000206005019080519060200190611b0c92919061269d565b50600854600a600060085481526020019081526020016000206001018190555033600a6000600854815260200190815260200160002060020160006101000a81548173ffffffffffffffffffffffffffffffffffffffff021916908373ffffffffffffffffffffffffffffffffffffffff1602179055506000600a6000600854815260200190815260200160002060060160026101000a81548160ff0219169083151502179055506001600960003373ffffffffffffffffffffffffffffffffffffffff1673ffffffffffffffffffffffffffffffffffffffff16815260200190815260200160002060000160006101000a81548160ff021916908315150217905550600854600960003373ffffffffffffffffffffffffffffffffffffffff1673ffffffffffffffffffffffffffffffffffffffff168152602001908152602001600020600101819055506000600960003373ffffffffffffffffffffffffffffffffffffffff1673ffffffffffffffffffffffffffffffffffffffff168152602001908152602001600020600401819055507f1037545e264f7d6c7d015e8e70df985e55c9cd204b86bd583f8a667749a8d705600854604051611cd19190612e87565b60405180910390a15050565b6000600960003373ffffffffffffffffffffffffffffffffffffffff1673ffffffffffffffffffffffffffffffffffffffff1681526020019081526020016000206001015490503373ffffffffffffffffffffffffffffffffffffffff16600a600083815260200190815260200160002060020160009054906101000a900473ffffffffffffffffffffffffffffffffffffffff1673ffffffffffffffffffffffffffffffffffffffff1614611dc8576040517f08c379a0000000000000000000000000000000000000000000000000000000008152600401611dbf90613933565b60405180910390fd5b600a600082815260200190815260200160002060060160009054906101000a900460ff16611e2b576040517f08c379a0000000000000000000000000000000000000000000000000000000008152600401611e229061399f565b60405180910390fd5b6001600a600083815260200190815260200160002060060160016101000a81548160ff021916908315150217905550600160096000600a600085815260200190815260200160002060020160009054906101000a900473ffffffffffffffffffffffffffffffffffffffff1673ffffffffffffffffffffffffffffffffffffffff1673ffffffffffffffffffffffffffffffffffffffff16815260200190815260200160002060000160016101000a81548160ff021916908315150217905550600060096000600a600085815260200190815260200160002060030160009054906101000a900473ffffffffffffffffffffffffffffffffffffffff1673ffffffffffffffffffffffffffffffffffffffff1673ffffffffffffffffffffffffffffffffffffffff16815260200190815260200160002060000160016101000a81548160ff021916908315150217905550600160096000600a600085815260200190815260200160002060030160009054906101000a900473ffffffffffffffffffffffffffffffffffffffff1673ffffffffffffffffffffffffffffffffffffffff1673ffffffffffffffffffffffffffffffffffffffff16815260200190815260200160002060000160006101000a81548160ff0219169083151502179055506000600a6000838152602001908152602001600020600401819055507f9ff7bc56bfc9f174612251ff607e9a5fbc0fde7a4c90be40f0f0e5fffecfa915816040516120589190612e87565b60405180910390a150565b5050565b600033905090565b60008060009054906101000a900473ffffffffffffffffffffffffffffffffffffffff169050816000806101000a81548173ffffffffffffffffffffffffffffffffffffffff021916908373ffffffffffffffffffffffffffffffffffffffff1602179055508173ffffffffffffffffffffffffffffffffffffffff168173ffffffffffffffffffffffffffffffffffffffff167f8be0079c531659141344cd1fd0a4f28419497f9722a3daafe3b4186f6b6457e060405160405180910390a35050565b600080600090505b600960008573ffffffffffffffffffffffffffffffffffffffff1673ffffffffffffffffffffffffffffffffffffffff168152602001908152602001600020600601805490508110156122cc57600960008573ffffffffffffffffffffffffffffffffffffffff1673ffffffffffffffffffffffffffffffffffffffff16815260200190815260200160002060060181815481106121dc576121db6139bf565b5b90600052602060002001600081546121f3906132e1565b8110612202576122016139bf565b5b8154600116156122215790600052602060002090602091828204019190065b9054901a7f0100000000000000000000000000000000000000000000000000000000000000027effffffffffffffffffffffffffffffffffffffffffffffffffffffffffffff19168360008151811061227d5761227c6139bf565b5b602001015160f81c60f81b7effffffffffffffffffffffffffffffffffffffffffffffffffffffffffffff1916036122b95760019150506122d2565b80806122c4906136fc565b91505061213b565b50600090505b92915050565b6000806000905060005b845181101561239357836000815181106122ff576122fe6139bf565b5b602001015160f81c60f81b7effffffffffffffffffffffffffffffffffffffffffffffffffffffffffffff191685828151811061233f5761233e6139bf565b5b602001015160f81c60f81b7effffffffffffffffffffffffffffffffffffffffffffffffffffffffffffff19160361238057818061237c906136fc565b9250505b808061238b906136fc565b9150506122e2565b508091505092915050565b6001600a600084815260200190815260200160002060060160026101000a81548160ff02191690831515021790555061240c600a600084815260200190815260200160002060020160009054906101000a900473ffffffffffffffffffffffffffffffffffffffff166124be565b61244b600a600084815260200190815260200160002060030160009054906101000a900473ffffffffffffffffffffffffffffffffffffffff166124be565b600a600083815260200190815260200160002060000154600960008373ffffffffffffffffffffffffffffffffffffffff1673ffffffffffffffffffffffffffffffffffffffff16815260200190815260200160002060050160008282546124b39190613744565b925050819055505050565b6000600960008373ffffffffffffffffffffffffffffffffffffffff1673ffffffffffffffffffffffffffffffffffffffff16815260200190815260200160002060000160006101000a81548160ff0219169083151502179055506000600960008373ffffffffffffffffffffffffffffffffffffffff1673ffffffffffffffffffffffffffffffffffffffff16815260200190815260200160002060000160016101000a81548160ff0219169083151502179055506000600960008373ffffffffffffffffffffffffffffffffffffffff1673ffffffffffffffffffffffffffffffffffffffff168152602001908152602001600020600101819055506000600960008373ffffffffffffffffffffffffffffffffffffffff1673ffffffffffffffffffffffffffffffffffffffff168152602001908152602001600020600201819055506000600960008373ffffffffffffffffffffffffffffffffffffffff1673ffffffffffffffffffffffffffffffffffffffff16815260200190815260200160002060040181905550600960008273ffffffffffffffffffffffffffffffffffffffff1673ffffffffffffffffffffffffffffffffffffffff168152602001908152602001600020600601600061269a9190612723565b50565b8280546126a9906132e1565b90600052602060002090601f0160209004810192826126cb5760008555612712565b82601f106126e457805160ff1916838001178555612712565b82800160010185558215612712579182015b828111156127115782518255916020019190600101906126f6565b5b50905061271f9190612744565b5090565b50805460008255906000526020600020908101906127419190612761565b50565b5b8082111561275d576000816000905550600101612745565b5090565b5b8082111561278157600081816127789190612785565b50600101612762565b5090565b508054612791906132e1565b6000825580601f106127a357506127c2565b601f0160209004906000526020600020908101906127c19190612744565b5b50565b6000604051905090565b600080fd5b600080fd5b6000819050919050565b6127ec816127d9565b81146127f757600080fd5b50565b600081359050612809816127e3565b92915050565b600060208284031215612825576128246127cf565b5b6000612833848285016127fa565b91505092915050565b600073ffffffffffffffffffffffffffffffffffffffff82169050919050565b60006128678261283c565b9050919050565b6128778161285c565b811461288257600080fd5b50565b6000813590506128948161286e565b92915050565b6000602082840312156128b0576128af6127cf565b5b60006128be84828501612885565b91505092915050565b60008115159050919050565b6128dc816128c7565b82525050565b6128eb816127d9565b82525050565b600060e082019050612906600083018a6128d3565b61291360208301896128d3565b61292060408301886128e2565b61292d60608301876128e2565b61293a60808301866128e2565b61294760a08301856128e2565b61295460c08301846128e2565b98975050505050505050565b600080fd5b6000601f19601f8301169050919050565b7f4e487b7100000000000000000000000000000000000000000000000000000000600052604160045260246000fd5b6129ae82612965565b810181811067ffffffffffffffff821117156129cd576129cc612976565b5b80604052505050565b60006129e06127c5565b90506129ec82826129a5565b919050565b600067ffffffffffffffff821115612a0c57612a0b612976565b5b602082029050602081019050919050565b600080fd5b6000612a35612a30846129f1565b6129d6565b90508083825260208201905060208402830185811115612a5857612a57612a1d565b5b835b81811015612a815780612a6d88826127fa565b845260208401935050602081019050612a5a565b5050509392505050565b600082601f830112612aa057612a9f612960565b5b8135612ab0848260208601612a22565b91505092915050565b60008060408385031215612ad057612acf6127cf565b5b6000612ade858286016127fa565b925050602083013567ffffffffffffffff811115612aff57612afe6127d4565b5b612b0b85828601612a8b565b9150509250929050565b600080fd5b600067ffffffffffffffff821115612b3557612b34612976565b5b612b3e82612965565b9050602081019050919050565b82818337600083830152505050565b6000612b6d612b6884612b1a565b6129d6565b905082815260208101848484011115612b8957612b88612b15565b5b612b94848285612b4b565b509392505050565b600082601f830112612bb157612bb0612960565b5b8135612bc1848260208601612b5a565b91505092915050565b600060208284031215612be057612bdf6127cf565b5b600082013567ffffffffffffffff811115612bfe57612bfd6127d4565b5b612c0a84828501612b9c565b91505092915050565b612c1c8161285c565b82525050565b6000602082019050612c376000830184612c13565b92915050565b600081519050919050565b600082825260208201905092915050565b60005b83811015612c77578082015181840152602081019050612c5c565b83811115612c86576000848401525b50505050565b6000612c9782612c3d565b612ca18185612c48565b9350612cb1818560208601612c59565b612cba81612965565b840191505092915050565b600061012082019050612cdb600083018c6128e2565b612ce8602083018b6128e2565b612cf5604083018a612c13565b612d026060830189612c13565b612d0f60808301886128e2565b81810360a0830152612d218187612c8c565b9050612d3060c08301866128d3565b612d3d60e08301856128d3565b612d4b6101008301846128d3565b9a9950505050505050505050565b600081519050919050565b600082825260208201905092915050565b6000819050602082019050919050565b600082825260208201905092915050565b6000612da182612c3d565b612dab8185612d85565b9350612dbb818560208601612c59565b612dc481612965565b840191505092915050565b6000612ddb8383612d96565b905092915050565b6000602082019050919050565b6000612dfb82612d59565b612e058185612d64565b935083602082028501612e1785612d75565b8060005b85811015612e535784840389528151612e348582612dcf565b9450612e3f83612de3565b925060208a01995050600181019050612e1b565b50829750879550505050505092915050565b60006020820190508181036000830152612e7f8184612df0565b905092915050565b6000602082019050612e9c60008301846128e2565b92915050565b6000602082019050612eb760008301846128d3565b92915050565b7f53657373696f6e206572726f7200000000000000000000000000000000000000600082015250565b6000612ef3600d83612c48565b9150612efe82612ebd565b602082019050919050565b60006020820190508181036000830152612f2281612ee6565b9050919050565b7f596f752061726520616c726561647920706c6179696e67000000000000000000600082015250565b6000612f5f601783612c48565b9150612f6a82612f29565b602082019050919050565b60006020820190508181036000830152612f8e81612f52565b9050919050565b7f53657373696f6e20697320656e64656400000000000000000000000000000000600082015250565b6000612fcb601083612c48565b9150612fd682612f95565b602082019050919050565b60006020820190508181036000830152612ffa81612fbe565b9050919050565b600081905092915050565b50565b600061301c600083613001565b91506130278261300c565b600082019050919050565b600061303d8261300f565b9150819050919050565b7f4e6f7420656e6f756774682066756e64732073656e6465640000000000000000600082015250565b600061307d601883612c48565b915061308882613047565b602082019050919050565b600060208201905081810360008301526130ac81613070565b9050919050565b60006040820190506130c86000830185612c13565b6130d56020830184612c13565b9392505050565b7f596f752068617665206e6f7468696e6720746f20776974686472617700000000600082015250565b6000613112601c83612c48565b915061311d826130dc565b602082019050919050565b6000602082019050818103600083015261314181613105565b9050919050565b7f4f776e61626c653a2063616c6c6572206973206e6f7420746865206f776e6572600082015250565b600061317e602083612c48565b915061318982613148565b602082019050919050565b600060208201905081810360008301526131ad81613171565b9050919050565b7f49742773206e6f7420796f75722073657373696f6e0000000000000000000000600082015250565b60006131ea601583612c48565b91506131f5826131b4565b602082019050919050565b60006020820190508181036000830152613219816131dd565b9050919050565b7f596f75722073657373696f6e206861766520616c72656164792073746172746560008201527f6400000000000000000000000000000000000000000000000000000000000000602082015250565b600061327c602183612c48565b915061328782613220565b604082019050919050565b600060208201905081810360008301526132ab8161326f565b9050919050565b7f4e487b7100000000000000000000000000000000000000000000000000000000600052602260045260246000fd5b600060028204905060018216806132f957607f821691505b60208210810361330c5761330b6132b2565b5b50919050565b6000819050919050565b61332581613312565b82525050565b600067ffffffffffffffff82169050919050565b6133488161332b565b82525050565b600061ffff82169050919050565b6133658161334e565b82525050565b600063ffffffff82169050919050565b6133848161336b565b82525050565b600060a08201905061339f600083018861331c565b6133ac602083018761333f565b6133b9604083018661335c565b6133c6606083018561337b565b6133d3608083018461337b565b9695505050505050565b6000815190506133ec816127e3565b92915050565b600060208284031215613408576134076127cf565b5b6000613416848285016133dd565b91505092915050565b7f5468652073657373696f6e206861736e27742073746172742079657400000000600082015250565b6000613455601c83612c48565b91506134608261341f565b602082019050919050565b6000602082019050818103600083015261348481613448565b9050919050565b7f5468652073657373696f6e20697320656e646564000000000000000000000000600082015250565b60006134c1601483612c48565b91506134cc8261348b565b602082019050919050565b600060208201905081810360008301526134f0816134b4565b9050919050565b7f49742773206e6f7420796f7572207475726e0000000000000000000000000000600082015250565b600061352d601283612c48565b9150613538826134f7565b602082019050919050565b6000602082019050818103600083015261355c81613520565b9050919050565b7f49742773206e6f742061206c6574746572000000000000000000000000000000600082015250565b6000613599601183612c48565b91506135a482613563565b602082019050919050565b600060208201905081810360008301526135c88161358c565b9050919050565b7f596f75206861766520616c726561647920757365642074686973206c6574746560008201527f7200000000000000000000000000000000000000000000000000000000000000602082015250565b600061362b602183612c48565b9150613636826135cf565b604082019050919050565b6000602082019050818103600083015261365a8161361e565b9050919050565b7f69742773206e6f7420796f7572207475726e0000000000000000000000000000600082015250565b6000613697601283612c48565b91506136a282613661565b602082019050919050565b600060208201905081810360008301526136c68161368a565b9050919050565b7f4e487b7100000000000000000000000000000000000000000000000000000000600052601160045260246000fd5b6000613707826127d9565b91507fffffffffffffffffffffffffffffffffffffffffffffffffffffffffffffffff8203613739576137386136cd565b5b600182019050919050565b600061374f826127d9565b915061375a836127d9565b9250827fffffffffffffffffffffffffffffffffffffffffffffffffffffffffffffffff0382111561378f5761378e6136cd565b5b828201905092915050565b60006040820190506137af60008301856128e2565b6137bc6020830184612c13565b9392505050565b7f4f776e61626c653a206e6577206f776e657220697320746865207a65726f206160008201527f6464726573730000000000000000000000000000000000000000000000000000602082015250565b600061381f602683612c48565b915061382a826137c3565b604082019050919050565b6000602082019050818103600083015261384e81613812565b9050919050565b7f6e6f7420656e6f7567746820666f756e64730000000000000000000000000000600082015250565b600061388b601283612c48565b915061389682613855565b602082019050919050565b600060208201905081810360008301526138ba8161387e565b9050919050565b7f596f7520617265206e6f7420746865206f776e6572206f66206120736573736960008201527f6f6e000000000000000000000000000000000000000000000000000000000000602082015250565b600061391d602283612c48565b9150613928826138c1565b604082019050919050565b6000602082019050818103600083015261394c81613910565b9050919050565b7f53657373696f6e206973206e6f7420636f6d706c657465000000000000000000600082015250565b6000613989601783612c48565b915061399482613953565b602082019050919050565b600060208201905081810360008301526139b88161397c565b9050919050565b7f4e487b7100000000000000000000000000000000000000000000000000000000600052603260045260246000fdfea26469706673582212203001fb4e86c340ba685556b8086e8b3e1d087fe3347358f86a5921c6e3e9476464736f6c634300080e0033",
  "immutableReferences": {
    "10": [
      {
        "length": 32,
        "start": 1845
      },
      {
        "length": 32,
        "start": 1929
      }
    ]
  },
  "source": "pragma solidity 0.8.14;\r\n\r\nimport \"@openzeppelin/contracts/access/Ownable.sol\";\r\nimport \"@chainlink/contracts/src/v0.8/interfaces/VRFCoordinatorV2Interface.sol\";\r\nimport \"@chainlink/contracts/src/v0.8/VRFConsumerBaseV2.sol\";\r\nimport \"@openzeppelin/contracts/token/ERC20/IERC20.sol\";\r\n\r\ncontract mainContract is VRFConsumerBaseV2, Ownable {\r\n    VRFCoordinatorV2Interface COORDINATOR;\r\n\r\n    address vrfCoordinator = 0x6168499c0cFfCaCD319c818142124B7A15E857ab;\r\n\r\n    bytes32 keyHash =\r\n        0xd89b2bf150e3b9e13446986e571fb9cab24b13cea0a43ea20a6049a85cc807cc;\r\n\r\n    IERC20 LINK = IERC20(0x01BE23585060835E02B77ef475b0Cc51aA1e0709);\r\n\r\n    uint32 callbackGasLimit = 100000;\r\n\r\n    uint16 requestConfirmations = 3;\r\n\r\n    uint64 s_subscriptionId;\r\n\r\n    uint256 public s_requestId;\r\n\r\n    string[] wordList;\r\n\r\n    uint256 sessionIndex = 0;\r\n\r\n    struct UserInfos {\r\n        bool isPlaying;\r\n        bool isPlayerTurn;\r\n        uint256 sessionId;\r\n        uint256 score;\r\n        uint256 currentBet;\r\n        uint256 nbTry;\r\n        uint256 withdrawValue;\r\n        string[] letterGuessed;\r\n    }\r\n\r\n    struct Session {\r\n        uint256 bet;\r\n        uint256 sessionId;\r\n        address player1;\r\n        address player2;\r\n        uint256 playerTurn;\r\n        string word;\r\n        bool isComplete;\r\n        bool started;\r\n        bool ended;\r\n    }\r\n\r\n    mapping(address => UserInfos) public userInfo;\r\n\r\n    mapping(uint256 => Session) public session;\r\n\r\n    event sessionCreated(uint256 _sessionIndex);\r\n\r\n    event sessionJoined(uint256 _sessionIndex);\r\n\r\n    event sessionStarted(uint256 _sessionIndex);\r\n\r\n    event play(bool founLetter);\r\n\r\n    event sessionEnded(uint256 bet, address winner);\r\n\r\n    constructor(uint64 subscriptionId) VRFConsumerBaseV2(vrfCoordinator) {\r\n        COORDINATOR = VRFCoordinatorV2Interface(vrfCoordinator);\r\n        s_subscriptionId = subscriptionId;\r\n    }\r\n\r\n    function addWord(string memory _word) public onlyOwner {\r\n        wordList.push(_word);\r\n    }\r\n\r\n    function createSession(uint256 _bet) public payable {\r\n        // string wordToGuess = requestRandomWords();\r\n        (bool sucess, ) = msg.sender.call{value: _bet}(\"\");\r\n        require(!userInfo[msg.sender].isPlaying, \"You are already playing\");\r\n        require(sucess, \"not enougth founds\");\r\n        sessionIndex++;\r\n        session[sessionIndex].bet = _bet;\r\n        session[sessionIndex].word = \"az\";\r\n        session[sessionIndex].sessionId = sessionIndex;\r\n        session[sessionIndex].player1 = msg.sender;\r\n        session[sessionIndex].ended = false;\r\n        userInfo[msg.sender].isPlaying = true;\r\n        userInfo[msg.sender].sessionId = sessionIndex;\r\n        userInfo[msg.sender].nbTry = 0;\r\n        emit sessionCreated(sessionIndex);\r\n    }\r\n\r\n    function joinSession(uint256 _sessionId) public payable {\r\n        require(session[_sessionId].bet > 0, \"Session error\");\r\n        require(!userInfo[msg.sender].isPlaying, \"You are already playing\");\r\n        require(!session[_sessionId].ended, \"Session is ended\");\r\n        (bool sucess, ) = msg.sender.call{value: session[_sessionId].bet}(\"\");\r\n        require(sucess, \"Not enougth funds sended\");\r\n        userInfo[msg.sender].sessionId = _sessionId;\r\n        session[sessionIndex].player2 = msg.sender;\r\n        session[sessionIndex].isComplete = true;\r\n        userInfo[msg.sender].nbTry = 0;\r\n        emit sessionJoined(_sessionId);\r\n    }\r\n\r\n    function abortSession(uint256 _sessionId) public {\r\n        require(\r\n            userInfo[msg.sender].sessionId == _sessionId,\r\n            \"It's not your session\"\r\n        );\r\n        require(\r\n            !session[_sessionId].started,\r\n            \"Your session have already started\"\r\n        );\r\n    }\r\n\r\n    function startSession() public {\r\n        uint256 index = userInfo[msg.sender].sessionId;\r\n        require(\r\n            session[index].player1 == msg.sender,\r\n            \"You are not the owner of a session\"\r\n        );\r\n        require(session[index].isComplete, \"Session is not complete\");\r\n        session[index].started = true;\r\n        userInfo[session[index].player1].isPlayerTurn = true;\r\n        userInfo[session[index].player2].isPlayerTurn = false;\r\n        userInfo[session[index].player2].isPlaying = true;\r\n        session[index].playerTurn = 0;\r\n        emit sessionStarted(index);\r\n    }\r\n\r\n    function guessWord(string memory _letter) public returns (bool) {\r\n        uint256 index = userInfo[msg.sender].sessionId;\r\n\r\n        require(session[index].started, \"The session hasn't start yet\");\r\n        require(!session[index].ended, \"The session is ended\");\r\n        require(userInfo[msg.sender].isPlayerTurn, \"It's not your turn\");\r\n        require(bytes(_letter).length == 1, \"It's not a letter\");\r\n        require(\r\n            !haveUsedThisLetter(msg.sender, _letter),\r\n            \"You have already used this letter\"\r\n        );\r\n        require(userInfo[msg.sender].isPlayerTurn, \"it's not your turn\");\r\n\r\n        bool winRound = false;\r\n\r\n        userInfo[msg.sender].isPlayerTurn = false;\r\n\r\n        userInfo[msg.sender].letterGuessed.push(_letter);\r\n\r\n        userInfo[msg.sender].nbTry++;\r\n\r\n        if (session[index].playerTurn == 0) {\r\n            userInfo[session[index].player1].isPlayerTurn = false;\r\n            userInfo[session[index].player2].isPlayerTurn = true;\r\n            session[index].playerTurn = 1;\r\n        } else if (session[index].playerTurn == 1) {\r\n            userInfo[session[index].player1].isPlayerTurn = true;\r\n            userInfo[session[index].player2].isPlayerTurn = false;\r\n            session[index].playerTurn = 0;\r\n        }\r\n\r\n        if (letterIsInWord(session[index].word, _letter) >= 1) {\r\n            userInfo[msg.sender].score += letterIsInWord(\r\n                session[index].word,\r\n                _letter\r\n            );\r\n            winRound = true;\r\n        }\r\n        if (userInfo[msg.sender].score == bytes(session[index].word).length) {\r\n            endSession(index, msg.sender);\r\n            emit sessionEnded(session[index].bet, msg.sender);\r\n        }\r\n\r\n        emit play(winRound);\r\n        return winRound;\r\n    }\r\n\r\n    function endSession(uint256 _sessionId, address winner) internal {\r\n        session[_sessionId].ended = true;\r\n        resetUserInfos(session[_sessionId].player1);\r\n        resetUserInfos(session[_sessionId].player2);\r\n        userInfo[winner].withdrawValue += session[_sessionId].bet;\r\n    }\r\n\r\n    function withdraw() public {\r\n        require(\r\n            userInfo[msg.sender].withdrawValue > 0,\r\n            \"You have nothing to withdraw\"\r\n        );\r\n        payable(msg.sender).transfer(userInfo[msg.sender].withdrawValue);\r\n    }\r\n\r\n    function haveUsedThisLetter(address _user, string memory _letter)\r\n        internal\r\n        view\r\n        returns (bool)\r\n    {\r\n        for (uint256 i = 0; i < userInfo[_user].letterGuessed.length; i++) {\r\n            if (bytes(_letter)[0] == bytes(userInfo[_user].letterGuessed[i])[0])\r\n                return true;\r\n        }\r\n        return false;\r\n    }\r\n\r\n    function letterIsInWord(string memory _word, string memory _letter)\r\n        internal\r\n        pure\r\n        returns (uint256)\r\n    {\r\n        uint256 isLetter = 0;\r\n        for (uint256 i = 0; i < bytes(_word).length; i++) {\r\n            if (bytes(_word)[i] == bytes(_letter)[0]) isLetter++;\r\n        }\r\n        return isLetter;\r\n    }\r\n\r\n    function resetUserInfos(address user) internal {\r\n        userInfo[user].isPlaying = false;\r\n        userInfo[user].isPlayerTurn = false;\r\n        userInfo[user].sessionId = 0;\r\n        userInfo[user].score = 0;\r\n        userInfo[user].nbTry = 0;\r\n\r\n        delete userInfo[user].letterGuessed;\r\n    }\r\n\r\n    function requestRandomWords() external onlyOwner {\r\n        s_requestId = COORDINATOR.requestRandomWords(\r\n            keyHash,\r\n            s_subscriptionId,\r\n            requestConfirmations,\r\n            callbackGasLimit,\r\n            uint32(wordList.length)\r\n        );\r\n    }\r\n\r\n    function fulfillRandomWords(\r\n        uint256, /* requestId */\r\n        uint256[] memory randomWords\r\n    ) internal override {\r\n        // s_randomWords = randomWords;\r\n    }\r\n\r\n    function getWorkList() public view returns (string[] memory) {\r\n        return wordList;\r\n    }\r\n}\r\n",
  "sourcePath": "E:\\Rattrapage\\contracts\\mainContract.sol",
  "compiler": {
    "name": "solc",
    "version": "0.8.14+commit.80d49f37.Emscripten.clang"
  },
  "schemaVersion": "3.4.3",
  "updatedAt": "2022-07-23T13:42:19.925Z",
  "networkType": "ethereum",
  "devdoc": {
    "kind": "dev",
    "methods": {
      "owner()": {
        "details": "Returns the address of the current owner."
      },
      "renounceOwnership()": {
        "details": "Leaves the contract without owner. It will not be possible to call `onlyOwner` functions anymore. Can only be called by the current owner. NOTE: Renouncing ownership will leave the contract without an owner, thereby removing any functionality that is only available to the owner."
      },
      "transferOwnership(address)": {
        "details": "Transfers ownership of the contract to a new account (`newOwner`). Can only be called by the current owner."
      }
    },
    "version": 1
  },
  "userdoc": {
    "kind": "user",
    "methods": {},
    "version": 1
  }
}