{
  "contractName": "mainContract",
  "abi": [
    {
      "inputs": [
        {
          "internalType": "uint64",
          "name": "subscriptionId",
          "type": "uint64"
        }
      ],
      "stateMutability": "nonpayable",
      "type": "constructor"
    },
    {
      "inputs": [
        {
          "internalType": "address",
          "name": "have",
          "type": "address"
        },
        {
          "internalType": "address",
          "name": "want",
          "type": "address"
        }
      ],
      "name": "OnlyCoordinatorCanFulfill",
      "type": "error"
    },
    {
      "anonymous": false,
      "inputs": [
        {
          "indexed": true,
          "internalType": "address",
          "name": "previousOwner",
          "type": "address"
        },
        {
          "indexed": true,
          "internalType": "address",
          "name": "newOwner",
          "type": "address"
        }
      ],
      "name": "OwnershipTransferred",
      "type": "event"
    },
    {
      "anonymous": false,
      "inputs": [
        {
          "indexed": false,
          "internalType": "uint256",
          "name": "_sessionIndex",
          "type": "uint256"
        }
      ],
      "name": "sessionCreated",
      "type": "event"
    },
    {
      "anonymous": false,
      "inputs": [
        {
          "indexed": false,
          "internalType": "uint256",
          "name": "bet",
          "type": "uint256"
        },
        {
          "indexed": false,
          "internalType": "address",
          "name": "winner",
          "type": "address"
        }
      ],
      "name": "sessionEnded",
      "type": "event"
    },
    {
      "anonymous": false,
      "inputs": [
        {
          "indexed": false,
          "internalType": "uint256",
          "name": "_sessionIndex",
          "type": "uint256"
        }
      ],
      "name": "sessionJoined",
      "type": "event"
    },
    {
      "inputs": [],
      "name": "owner",
      "outputs": [
        {
          "internalType": "address",
          "name": "",
          "type": "address"
        }
      ],
      "stateMutability": "view",
      "type": "function",
      "constant": true
    },
    {
      "inputs": [
        {
          "internalType": "uint256",
          "name": "requestId",
          "type": "uint256"
        },
        {
          "internalType": "uint256[]",
          "name": "randomWords",
          "type": "uint256[]"
        }
      ],
      "name": "rawFulfillRandomWords",
      "outputs": [],
      "stateMutability": "nonpayable",
      "type": "function"
    },
    {
      "inputs": [],
      "name": "renounceOwnership",
      "outputs": [],
      "stateMutability": "nonpayable",
      "type": "function"
    },
    {
      "inputs": [],
      "name": "s_requestId",
      "outputs": [
        {
          "internalType": "uint256",
          "name": "",
          "type": "uint256"
        }
      ],
      "stateMutability": "view",
      "type": "function",
      "constant": true
    },
    {
      "inputs": [
        {
          "internalType": "uint256",
          "name": "",
          "type": "uint256"
        }
      ],
      "name": "session",
      "outputs": [
        {
          "internalType": "uint256",
          "name": "bet",
          "type": "uint256"
        },
        {
          "internalType": "uint256",
          "name": "sessionId",
          "type": "uint256"
        },
        {
          "internalType": "address",
          "name": "players1",
          "type": "address"
        },
        {
          "internalType": "address",
          "name": "players2",
          "type": "address"
        },
        {
          "internalType": "uint256",
          "name": "playerTurn",
          "type": "uint256"
        },
        {
          "internalType": "string",
          "name": "word",
          "type": "string"
        },
        {
          "internalType": "bool",
          "name": "isComplete",
          "type": "bool"
        },
        {
          "internalType": "bool",
          "name": "started",
          "type": "bool"
        },
        {
          "internalType": "bool",
          "name": "ended",
          "type": "bool"
        }
      ],
      "stateMutability": "view",
      "type": "function",
      "constant": true
    },
    {
      "inputs": [
        {
          "internalType": "address",
          "name": "newOwner",
          "type": "address"
        }
      ],
      "name": "transferOwnership",
      "outputs": [],
      "stateMutability": "nonpayable",
      "type": "function"
    },
    {
      "inputs": [
        {
          "internalType": "address",
          "name": "",
          "type": "address"
        }
      ],
      "name": "userInfo",
      "outputs": [
        {
          "internalType": "bool",
          "name": "isPlaying",
          "type": "bool"
        },
        {
          "internalType": "bool",
          "name": "isPlayerTurn",
          "type": "bool"
        },
        {
          "internalType": "uint256",
          "name": "sessionId",
          "type": "uint256"
        },
        {
          "internalType": "uint256",
          "name": "score",
          "type": "uint256"
        },
        {
          "internalType": "uint256",
          "name": "currentBet",
          "type": "uint256"
        }
      ],
      "stateMutability": "view",
      "type": "function",
      "constant": true
    },
    {
      "inputs": [
        {
          "internalType": "string",
          "name": "_word",
          "type": "string"
        }
      ],
      "name": "addWord",
      "outputs": [],
      "stateMutability": "nonpayable",
      "type": "function"
    },
    {
      "inputs": [
        {
          "internalType": "uint256",
          "name": "_bet",
          "type": "uint256"
        }
      ],
      "name": "createSession",
      "outputs": [],
      "stateMutability": "payable",
      "type": "function",
      "payable": true
    },
    {
      "inputs": [
        {
          "internalType": "uint256",
          "name": "_sessionId",
          "type": "uint256"
        }
      ],
      "name": "joinSession",
      "outputs": [],
      "stateMutability": "payable",
      "type": "function",
      "payable": true
    },
    {
      "inputs": [
        {
          "internalType": "uint256",
          "name": "_sessionId",
          "type": "uint256"
        }
      ],
      "name": "abortSession",
      "outputs": [],
      "stateMutability": "nonpayable",
      "type": "function"
    },
    {
      "inputs": [],
      "name": "startSession",
      "outputs": [],
      "stateMutability": "nonpayable",
      "type": "function"
    },
    {
      "inputs": [
        {
          "internalType": "string",
          "name": "_letter",
          "type": "string"
        }
      ],
      "name": "guessWord",
      "outputs": [
        {
          "internalType": "bool",
          "name": "",
          "type": "bool"
        }
      ],
      "stateMutability": "nonpayable",
      "type": "function"
    },
    {
      "inputs": [],
      "name": "requestRandomWords",
      "outputs": [],
      "stateMutability": "nonpayable",
      "type": "function"
    },
    {
      "inputs": [],
      "name": "getWorkList",
      "outputs": [
        {
          "internalType": "string[]",
          "name": "",
          "type": "string[]"
        }
      ],
      "stateMutability": "view",
      "type": "function",
      "constant": true
    }
  ],
  "bytecode": "0x60a0604052736168499c0cffcacd319c818142124b7a15e857ab600260006101000a81548173ffffffffffffffffffffffffffffffffffffffff021916908373ffffffffffffffffffffffffffffffffffffffff1602179055507fd89b2bf150e3b9e13446986e571fb9cab24b13cea0a43ea20a6049a85cc807cc60001b6003557301be23585060835e02b77ef475b0cc51aa1e0709600460006101000a81548173ffffffffffffffffffffffffffffffffffffffff021916908373ffffffffffffffffffffffffffffffffffffffff160217905550620186a0600460146101000a81548163ffffffff021916908363ffffffff1602179055506003600460186101000a81548161ffff021916908361ffff16021790555060006008553480156200012957600080fd5b50604051620038f3380380620038f383398181016040528101906200014f919062000370565b600260009054906101000a900473ffffffffffffffffffffffffffffffffffffffff168073ffffffffffffffffffffffffffffffffffffffff1660808173ffffffffffffffffffffffffffffffffffffffff168152505050620001c7620001bb6200025a60201b60201c565b6200026260201b60201c565b600260009054906101000a900473ffffffffffffffffffffffffffffffffffffffff16600160006101000a81548173ffffffffffffffffffffffffffffffffffffffff021916908373ffffffffffffffffffffffffffffffffffffffff16021790555080600560006101000a81548167ffffffffffffffff021916908367ffffffffffffffff16021790555050620003a2565b600033905090565b60008060009054906101000a900473ffffffffffffffffffffffffffffffffffffffff169050816000806101000a81548173ffffffffffffffffffffffffffffffffffffffff021916908373ffffffffffffffffffffffffffffffffffffffff1602179055508173ffffffffffffffffffffffffffffffffffffffff168173ffffffffffffffffffffffffffffffffffffffff167f8be0079c531659141344cd1fd0a4f28419497f9722a3daafe3b4186f6b6457e060405160405180910390a35050565b600080fd5b600067ffffffffffffffff82169050919050565b6200034a816200032b565b81146200035657600080fd5b50565b6000815190506200036a816200033f565b92915050565b60006020828403121562000389576200038862000326565b5b6000620003998482850162000359565b91505092915050565b60805161352e620003c56000396000818161068601526106da015261352e6000f3fe6080604052600436106100e85760003560e01c8063a59ed07e1161008a578063eb87ed5111610059578063eb87ed51146102b9578063f2fde38b146102f6578063f847cdde1461031f578063fe0ae1651461033b576100e8565b8063a59ed07e14610207578063e0c862891461024c578063e7e053fc14610263578063e89e106a1461028e576100e8565b80634974da81116100c65780634974da8114610173578063664b2a381461019c578063715018a6146101c55780638da5cb5b146101dc576100e8565b806305991eba146100ed5780631959a002146101095780631fe543e31461014a575b600080fd5b61010760048036038101906101029190612436565b610352565b005b34801561011557600080fd5b50610130600480360381019061012b91906124c1565b610634565b604051610141959493929190612518565b60405180910390f35b34801561015657600080fd5b50610171600480360381019061016c91906126c4565b610684565b005b34801561017f57600080fd5b5061019a600480360381019061019591906127d5565b610744565b005b3480156101a857600080fd5b506101c360048036038101906101be9190612436565b6107ff565b005b3480156101d157600080fd5b506101da6108ea565b005b3480156101e857600080fd5b506101f1610972565b6040516101fe919061282d565b60405180910390f35b34801561021357600080fd5b5061022e60048036038101906102299190612436565b61099b565b604051610243999897969594939291906128d0565b60405180910390f35b34801561025857600080fd5b50610261610ad8565b005b34801561026f57600080fd5b50610278610c41565b6040516102859190612a70565b60405180910390f35b34801561029a57600080fd5b506102a3610d1a565b6040516102b09190612a92565b60405180910390f35b3480156102c557600080fd5b506102e060048036038101906102db91906127d5565b610d20565b6040516102ed9190612aad565b60405180910390f35b34801561030257600080fd5b5061031d600480360381019061031891906124c1565b6115a6565b005b61033960048036038101906103349190612436565b61169d565b005b34801561034757600080fd5b506103506119f8565b005b6000600a600083815260200190815260200160002060000154116103ab576040517f08c379a00000000000000000000000000000000000000000000000000000000081526004016103a290612b14565b60405180910390fd5b600960003373ffffffffffffffffffffffffffffffffffffffff1673ffffffffffffffffffffffffffffffffffffffff16815260200190815260200160002060000160009054906101000a900460ff161561043b576040517f08c379a000000000000000000000000000000000000000000000000000000000815260040161043290612b80565b60405180910390fd5b600a600082815260200190815260200160002060060160029054906101000a900460ff161561049f576040517f08c379a000000000000000000000000000000000000000000000000000000000815260040161049690612bec565b60405180910390fd5b60003373ffffffffffffffffffffffffffffffffffffffff16600a6000848152602001908152602001600020600001546040516104db90612c3d565b60006040518083038185875af1925050503d8060008114610518576040519150601f19603f3d011682016040523d82523d6000602084013e61051d565b606091505b5050905080610561576040517f08c379a000000000000000000000000000000000000000000000000000000000815260040161055890612c9e565b60405180910390fd5b81600960003373ffffffffffffffffffffffffffffffffffffffff1673ffffffffffffffffffffffffffffffffffffffff1681526020019081526020016000206001018190555033600a6000600854815260200190815260200160002060030160006101000a81548173ffffffffffffffffffffffffffffffffffffffff021916908373ffffffffffffffffffffffffffffffffffffffff1602179055506001600a6000600854815260200190815260200160002060060160006101000a81548160ff0219169083151502179055505050565b60096020528060005260406000206000915090508060000160009054906101000a900460ff16908060000160019054906101000a900460ff16908060010154908060020154908060030154905085565b7f000000000000000000000000000000000000000000000000000000000000000073ffffffffffffffffffffffffffffffffffffffff163373ffffffffffffffffffffffffffffffffffffffff161461073657337f00000000000000000000000000000000000000000000000000000000000000006040517f1cf993f400000000000000000000000000000000000000000000000000000000815260040161072d929190612cbe565b60405180910390fd5b6107408282611ce4565b5050565b61074c611ce8565b73ffffffffffffffffffffffffffffffffffffffff1661076a610972565b73ffffffffffffffffffffffffffffffffffffffff16146107c0576040517f08c379a00000000000000000000000000000000000000000000000000000000081526004016107b790612d33565b60405180910390fd5b6007819080600181540180825580915050600190039060005260206000200160009091909190915090805190602001906107fb9291906122c4565b5050565b80600960003373ffffffffffffffffffffffffffffffffffffffff1673ffffffffffffffffffffffffffffffffffffffff1681526020019081526020016000206001015414610883576040517f08c379a000000000000000000000000000000000000000000000000000000000815260040161087a90612d9f565b60405180910390fd5b600a600082815260200190815260200160002060060160019054906101000a900460ff16156108e7576040517f08c379a00000000000000000000000000000000000000000000000000000000081526004016108de90612e31565b60405180910390fd5b50565b6108f2611ce8565b73ffffffffffffffffffffffffffffffffffffffff16610910610972565b73ffffffffffffffffffffffffffffffffffffffff1614610966576040517f08c379a000000000000000000000000000000000000000000000000000000000815260040161095d90612d33565b60405180910390fd5b6109706000611cf0565b565b60008060009054906101000a900473ffffffffffffffffffffffffffffffffffffffff16905090565b600a6020528060005260406000206000915090508060000154908060010154908060020160009054906101000a900473ffffffffffffffffffffffffffffffffffffffff16908060030160009054906101000a900473ffffffffffffffffffffffffffffffffffffffff1690806004015490806005018054610a1c90612e80565b80601f0160208091040260200160405190810160405280929190818152602001828054610a4890612e80565b8015610a955780601f10610a6a57610100808354040283529160200191610a95565b820191906000526020600020905b815481529060010190602001808311610a7857829003601f168201915b5050505050908060060160009054906101000a900460ff16908060060160019054906101000a900460ff16908060060160029054906101000a900460ff16905089565b610ae0611ce8565b73ffffffffffffffffffffffffffffffffffffffff16610afe610972565b73ffffffffffffffffffffffffffffffffffffffff1614610b54576040517f08c379a0000000000000000000000000000000000000000000000000000000008152600401610b4b90612d33565b60405180910390fd5b600160009054906101000a900473ffffffffffffffffffffffffffffffffffffffff1673ffffffffffffffffffffffffffffffffffffffff16635d3b1d30600354600560009054906101000a900467ffffffffffffffff16600460189054906101000a900461ffff16600460149054906101000a900463ffffffff166007805490506040518663ffffffff1660e01b8152600401610bf6959493929190612f29565b6020604051808303816000875af1158015610c15573d6000803e3d6000fd5b505050506040513d601f19601f82011682018060405250810190610c399190612f91565b600681905550565b60606007805480602002602001604051908101604052809291908181526020016000905b82821015610d11578382906000526020600020018054610c8490612e80565b80601f0160208091040260200160405190810160405280929190818152602001828054610cb090612e80565b8015610cfd5780601f10610cd257610100808354040283529160200191610cfd565b820191906000526020600020905b815481529060010190602001808311610ce057829003601f168201915b505050505081526020019060010190610c65565b50505050905090565b60065481565b600080600960003373ffffffffffffffffffffffffffffffffffffffff1673ffffffffffffffffffffffffffffffffffffffff168152602001908152602001600020600101549050600a600082815260200190815260200160002060060160019054906101000a900460ff16610dcb576040517f08c379a0000000000000000000000000000000000000000000000000000000008152600401610dc29061300a565b60405180910390fd5b600a600082815260200190815260200160002060060160029054906101000a900460ff1615610e2f576040517f08c379a0000000000000000000000000000000000000000000000000000000008152600401610e2690613076565b60405180910390fd5b600960003373ffffffffffffffffffffffffffffffffffffffff1673ffffffffffffffffffffffffffffffffffffffff16815260200190815260200160002060000160019054906101000a900460ff16610ebe576040517f08c379a0000000000000000000000000000000000000000000000000000000008152600401610eb5906130e2565b60405180910390fd5b6001835114610f02576040517f08c379a0000000000000000000000000000000000000000000000000000000008152600401610ef99061314e565b60405180910390fd5b610f0c3384611db4565b15610f4c576040517f08c379a0000000000000000000000000000000000000000000000000000000008152600401610f43906131e0565b60405180910390fd5b600960003373ffffffffffffffffffffffffffffffffffffffff1673ffffffffffffffffffffffffffffffffffffffff16815260200190815260200160002060000160019054906101000a900460ff16610fdb576040517f08c379a0000000000000000000000000000000000000000000000000000000008152600401610fd29061324c565b60405180910390fd5b600080600960003373ffffffffffffffffffffffffffffffffffffffff1673ffffffffffffffffffffffffffffffffffffffff16815260200190815260200160002060000160016101000a81548160ff021916908315150217905550600960003373ffffffffffffffffffffffffffffffffffffffff1673ffffffffffffffffffffffffffffffffffffffff168152602001908152602001600020600401849080600181540180825580915050600190039060005260206000200160009091909190915090805190602001906110b29291906122c4565b506000600a6000848152602001908152602001600020600401540361121457600060096000600a600086815260200190815260200160002060020160009054906101000a900473ffffffffffffffffffffffffffffffffffffffff1673ffffffffffffffffffffffffffffffffffffffff1673ffffffffffffffffffffffffffffffffffffffff16815260200190815260200160002060000160016101000a81548160ff021916908315150217905550600160096000600a600086815260200190815260200160002060030160009054906101000a900473ffffffffffffffffffffffffffffffffffffffff1673ffffffffffffffffffffffffffffffffffffffff1673ffffffffffffffffffffffffffffffffffffffff16815260200190815260200160002060000160016101000a81548160ff0219169083151502179055506001600a600084815260200190815260200160002060040181905550611372565b6001600a6000848152602001908152602001600020600401540361137157600160096000600a600086815260200190815260200160002060020160009054906101000a900473ffffffffffffffffffffffffffffffffffffffff1673ffffffffffffffffffffffffffffffffffffffff1673ffffffffffffffffffffffffffffffffffffffff16815260200190815260200160002060000160016101000a81548160ff021916908315150217905550600060096000600a600086815260200190815260200160002060030160009054906101000a900473ffffffffffffffffffffffffffffffffffffffff1673ffffffffffffffffffffffffffffffffffffffff1673ffffffffffffffffffffffffffffffffffffffff16815260200190815260200160002060000160016101000a81548160ff0219169083151502179055506000600a6000848152602001908152602001600020600401819055505b5b600161141c600a6000858152602001908152602001600020600501805461139890612e80565b80601f01602080910402602001604051908101604052809291908181526020018280546113c490612e80565b80156114115780601f106113e657610100808354040283529160200191611411565b820191906000526020600020905b8154815290600101906020018083116113f457829003601f168201915b505050505086611f59565b10611526576114c9600a6000848152602001908152602001600020600501805461144590612e80565b80601f016020809104026020016040519081016040528092919081815260200182805461147190612e80565b80156114be5780601f10611493576101008083540402835291602001916114be565b820191906000526020600020905b8154815290600101906020018083116114a157829003601f168201915b505050505085611f59565b600960003373ffffffffffffffffffffffffffffffffffffffff1673ffffffffffffffffffffffffffffffffffffffff168152602001908152602001600020600201600082825461151a919061329b565b92505081905550600190505b600a6000838152602001908152602001600020600501805461154790612e80565b9050600960003373ffffffffffffffffffffffffffffffffffffffff1673ffffffffffffffffffffffffffffffffffffffff168152602001908152602001600020600201540361159c5761159b823361201f565b5b8092505050919050565b6115ae611ce8565b73ffffffffffffffffffffffffffffffffffffffff166115cc610972565b73ffffffffffffffffffffffffffffffffffffffff1614611622576040517f08c379a000000000000000000000000000000000000000000000000000000000815260040161161990612d33565b60405180910390fd5b600073ffffffffffffffffffffffffffffffffffffffff168173ffffffffffffffffffffffffffffffffffffffff1603611691576040517f08c379a000000000000000000000000000000000000000000000000000000000815260040161168890613363565b60405180910390fd5b61169a81611cf0565b50565b60003373ffffffffffffffffffffffffffffffffffffffff16826040516116c390612c3d565b60006040518083038185875af1925050503d8060008114611700576040519150601f19603f3d011682016040523d82523d6000602084013e611705565b606091505b50509050600960003373ffffffffffffffffffffffffffffffffffffffff1673ffffffffffffffffffffffffffffffffffffffff16815260200190815260200160002060000160009054906101000a900460ff1615611799576040517f08c379a000000000000000000000000000000000000000000000000000000000815260040161179090612b80565b60405180910390fd5b806117d9576040517f08c379a00000000000000000000000000000000000000000000000000000000081526004016117d0906133cf565b60405180910390fd5b600860008154809291906117ec906133ef565b919050555081600a60006008548152602001908152602001600020600001819055506040518060400160405280600a81526020017f52616e646f6d576f726400000000000000000000000000000000000000000000815250600a60006008548152602001908152602001600020600501908051906020019061186f9291906122c4565b50600854600a600060085481526020019081526020016000206001018190555033600a6000600854815260200190815260200160002060020160006101000a81548173ffffffffffffffffffffffffffffffffffffffff021916908373ffffffffffffffffffffffffffffffffffffffff1602179055506000600a6000600854815260200190815260200160002060060160026101000a81548160ff0219169083151502179055506001600960003373ffffffffffffffffffffffffffffffffffffffff1673ffffffffffffffffffffffffffffffffffffffff16815260200190815260200160002060000160006101000a81548160ff021916908315150217905550600854600960003373ffffffffffffffffffffffffffffffffffffffff1673ffffffffffffffffffffffffffffffffffffffff168152602001908152602001600020600101819055507f1037545e264f7d6c7d015e8e70df985e55c9cd204b86bd583f8a667749a8d7056008546040516119ec9190612a92565b60405180910390a15050565b6000600960003373ffffffffffffffffffffffffffffffffffffffff1673ffffffffffffffffffffffffffffffffffffffff1681526020019081526020016000206001015490503373ffffffffffffffffffffffffffffffffffffffff16600a600083815260200190815260200160002060020160009054906101000a900473ffffffffffffffffffffffffffffffffffffffff1673ffffffffffffffffffffffffffffffffffffffff1614611ae3576040517f08c379a0000000000000000000000000000000000000000000000000000000008152600401611ada906134a9565b60405180910390fd5b6001600a600083815260200190815260200160002060060160016101000a81548160ff021916908315150217905550600160096000600a600085815260200190815260200160002060020160009054906101000a900473ffffffffffffffffffffffffffffffffffffffff1673ffffffffffffffffffffffffffffffffffffffff1673ffffffffffffffffffffffffffffffffffffffff16815260200190815260200160002060000160016101000a81548160ff021916908315150217905550600060096000600a600085815260200190815260200160002060030160009054906101000a900473ffffffffffffffffffffffffffffffffffffffff1673ffffffffffffffffffffffffffffffffffffffff1673ffffffffffffffffffffffffffffffffffffffff16815260200190815260200160002060000160016101000a81548160ff021916908315150217905550600160096000600a600085815260200190815260200160002060030160009054906101000a900473ffffffffffffffffffffffffffffffffffffffff1673ffffffffffffffffffffffffffffffffffffffff1673ffffffffffffffffffffffffffffffffffffffff16815260200190815260200160002060000160006101000a81548160ff0219169083151502179055506000600a60008381526020019081526020016000206004018190555050565b5050565b600033905090565b60008060009054906101000a900473ffffffffffffffffffffffffffffffffffffffff169050816000806101000a81548173ffffffffffffffffffffffffffffffffffffffff021916908373ffffffffffffffffffffffffffffffffffffffff1602179055508173ffffffffffffffffffffffffffffffffffffffff168173ffffffffffffffffffffffffffffffffffffffff167f8be0079c531659141344cd1fd0a4f28419497f9722a3daafe3b4186f6b6457e060405160405180910390a35050565b600080600090505b600960008573ffffffffffffffffffffffffffffffffffffffff1673ffffffffffffffffffffffffffffffffffffffff16815260200190815260200160002060040180549050811015611f4d57600960008573ffffffffffffffffffffffffffffffffffffffff1673ffffffffffffffffffffffffffffffffffffffff1681526020019081526020016000206004018181548110611e5d57611e5c6134c9565b5b9060005260206000200160008154611e7490612e80565b8110611e8357611e826134c9565b5b815460011615611ea25790600052602060002090602091828204019190065b9054901a7f0100000000000000000000000000000000000000000000000000000000000000027effffffffffffffffffffffffffffffffffffffffffffffffffffffffffffff191683600081518110611efe57611efd6134c9565b5b602001015160f81c60f81b7effffffffffffffffffffffffffffffffffffffffffffffffffffffffffffff191603611f3a576001915050611f53565b8080611f45906133ef565b915050611dbc565b50600090505b92915050565b6000806000905060005b84518110156120145783600081518110611f8057611f7f6134c9565b5b602001015160f81c60f81b7effffffffffffffffffffffffffffffffffffffffffffffffffffffffffffff1916858281518110611fc057611fbf6134c9565b5b602001015160f81c60f81b7effffffffffffffffffffffffffffffffffffffffffffffffffffffffffffff191603612001578180611ffd906133ef565b9250505b808061200c906133ef565b915050611f63565b508091505092915050565b6001600a600084815260200190815260200160002060060160026101000a81548160ff02191690831515021790555061208d600a600084815260200190815260200160002060020160009054906101000a900473ffffffffffffffffffffffffffffffffffffffff1661212d565b6120cc600a600084815260200190815260200160002060030160009054906101000a900473ffffffffffffffffffffffffffffffffffffffff1661212d565b8073ffffffffffffffffffffffffffffffffffffffff166108fc600a6000858152602001908152602001600020600001549081150290604051600060405180830381858888f19350505050158015612128573d6000803e3d6000fd5b505050565b6000600960008373ffffffffffffffffffffffffffffffffffffffff1673ffffffffffffffffffffffffffffffffffffffff16815260200190815260200160002060000160006101000a81548160ff0219169083151502179055506000600960008373ffffffffffffffffffffffffffffffffffffffff1673ffffffffffffffffffffffffffffffffffffffff16815260200190815260200160002060000160016101000a81548160ff0219169083151502179055506000600960008373ffffffffffffffffffffffffffffffffffffffff1673ffffffffffffffffffffffffffffffffffffffff168152602001908152602001600020600101819055506000600960008373ffffffffffffffffffffffffffffffffffffffff1673ffffffffffffffffffffffffffffffffffffffff16815260200190815260200160002060020181905550600960008273ffffffffffffffffffffffffffffffffffffffff1673ffffffffffffffffffffffffffffffffffffffff16815260200190815260200160002060040160006122c1919061234a565b50565b8280546122d090612e80565b90600052602060002090601f0160209004810192826122f25760008555612339565b82601f1061230b57805160ff1916838001178555612339565b82800160010185558215612339579182015b8281111561233857825182559160200191906001019061231d565b5b509050612346919061236b565b5090565b50805460008255906000526020600020908101906123689190612388565b50565b5b8082111561238457600081600090555060010161236c565b5090565b5b808211156123a8576000818161239f91906123ac565b50600101612389565b5090565b5080546123b890612e80565b6000825580601f106123ca57506123e9565b601f0160209004906000526020600020908101906123e8919061236b565b5b50565b6000604051905090565b600080fd5b600080fd5b6000819050919050565b61241381612400565b811461241e57600080fd5b50565b6000813590506124308161240a565b92915050565b60006020828403121561244c5761244b6123f6565b5b600061245a84828501612421565b91505092915050565b600073ffffffffffffffffffffffffffffffffffffffff82169050919050565b600061248e82612463565b9050919050565b61249e81612483565b81146124a957600080fd5b50565b6000813590506124bb81612495565b92915050565b6000602082840312156124d7576124d66123f6565b5b60006124e5848285016124ac565b91505092915050565b60008115159050919050565b612503816124ee565b82525050565b61251281612400565b82525050565b600060a08201905061252d60008301886124fa565b61253a60208301876124fa565b6125476040830186612509565b6125546060830185612509565b6125616080830184612509565b9695505050505050565b600080fd5b6000601f19601f8301169050919050565b7f4e487b7100000000000000000000000000000000000000000000000000000000600052604160045260246000fd5b6125b982612570565b810181811067ffffffffffffffff821117156125d8576125d7612581565b5b80604052505050565b60006125eb6123ec565b90506125f782826125b0565b919050565b600067ffffffffffffffff82111561261757612616612581565b5b602082029050602081019050919050565b600080fd5b600061264061263b846125fc565b6125e1565b9050808382526020820190506020840283018581111561266357612662612628565b5b835b8181101561268c57806126788882612421565b845260208401935050602081019050612665565b5050509392505050565b600082601f8301126126ab576126aa61256b565b5b81356126bb84826020860161262d565b91505092915050565b600080604083850312156126db576126da6123f6565b5b60006126e985828601612421565b925050602083013567ffffffffffffffff81111561270a576127096123fb565b5b61271685828601612696565b9150509250929050565b600080fd5b600067ffffffffffffffff8211156127405761273f612581565b5b61274982612570565b9050602081019050919050565b82818337600083830152505050565b600061277861277384612725565b6125e1565b90508281526020810184848401111561279457612793612720565b5b61279f848285612756565b509392505050565b600082601f8301126127bc576127bb61256b565b5b81356127cc848260208601612765565b91505092915050565b6000602082840312156127eb576127ea6123f6565b5b600082013567ffffffffffffffff811115612809576128086123fb565b5b612815848285016127a7565b91505092915050565b61282781612483565b82525050565b6000602082019050612842600083018461281e565b92915050565b600081519050919050565b600082825260208201905092915050565b60005b83811015612882578082015181840152602081019050612867565b83811115612891576000848401525b50505050565b60006128a282612848565b6128ac8185612853565b93506128bc818560208601612864565b6128c581612570565b840191505092915050565b6000610120820190506128e6600083018c612509565b6128f3602083018b612509565b612900604083018a61281e565b61290d606083018961281e565b61291a6080830188612509565b81810360a083015261292c8187612897565b905061293b60c08301866124fa565b61294860e08301856124fa565b6129566101008301846124fa565b9a9950505050505050505050565b600081519050919050565b600082825260208201905092915050565b6000819050602082019050919050565b600082825260208201905092915050565b60006129ac82612848565b6129b68185612990565b93506129c6818560208601612864565b6129cf81612570565b840191505092915050565b60006129e683836129a1565b905092915050565b6000602082019050919050565b6000612a0682612964565b612a10818561296f565b935083602082028501612a2285612980565b8060005b85811015612a5e5784840389528151612a3f85826129da565b9450612a4a836129ee565b925060208a01995050600181019050612a26565b50829750879550505050505092915050565b60006020820190508181036000830152612a8a81846129fb565b905092915050565b6000602082019050612aa76000830184612509565b92915050565b6000602082019050612ac260008301846124fa565b92915050565b7f53657373696f6e206572726f7200000000000000000000000000000000000000600082015250565b6000612afe600d83612853565b9150612b0982612ac8565b602082019050919050565b60006020820190508181036000830152612b2d81612af1565b9050919050565b7f596f752061726520616c726561647920706c6179696e67000000000000000000600082015250565b6000612b6a601783612853565b9150612b7582612b34565b602082019050919050565b60006020820190508181036000830152612b9981612b5d565b9050919050565b7f53657373696f6e20697320656e64656400000000000000000000000000000000600082015250565b6000612bd6601083612853565b9150612be182612ba0565b602082019050919050565b60006020820190508181036000830152612c0581612bc9565b9050919050565b600081905092915050565b50565b6000612c27600083612c0c565b9150612c3282612c17565b600082019050919050565b6000612c4882612c1a565b9150819050919050565b7f4e6f7420656e6f756774682066756e64732073656e6465640000000000000000600082015250565b6000612c88601883612853565b9150612c9382612c52565b602082019050919050565b60006020820190508181036000830152612cb781612c7b565b9050919050565b6000604082019050612cd3600083018561281e565b612ce0602083018461281e565b9392505050565b7f4f776e61626c653a2063616c6c6572206973206e6f7420746865206f776e6572600082015250565b6000612d1d602083612853565b9150612d2882612ce7565b602082019050919050565b60006020820190508181036000830152612d4c81612d10565b9050919050565b7f49742773206e6f7420796f75722073657373696f6e0000000000000000000000600082015250565b6000612d89601583612853565b9150612d9482612d53565b602082019050919050565b60006020820190508181036000830152612db881612d7c565b9050919050565b7f596f75722073657373696f6e206861766520616c72656164792073746172746560008201527f6400000000000000000000000000000000000000000000000000000000000000602082015250565b6000612e1b602183612853565b9150612e2682612dbf565b604082019050919050565b60006020820190508181036000830152612e4a81612e0e565b9050919050565b7f4e487b7100000000000000000000000000000000000000000000000000000000600052602260045260246000fd5b60006002820490506001821680612e9857607f821691505b602082108103612eab57612eaa612e51565b5b50919050565b6000819050919050565b612ec481612eb1565b82525050565b600067ffffffffffffffff82169050919050565b612ee781612eca565b82525050565b600061ffff82169050919050565b612f0481612eed565b82525050565b600063ffffffff82169050919050565b612f2381612f0a565b82525050565b600060a082019050612f3e6000830188612ebb565b612f4b6020830187612ede565b612f586040830186612efb565b612f656060830185612f1a565b612f726080830184612f1a565b9695505050505050565b600081519050612f8b8161240a565b92915050565b600060208284031215612fa757612fa66123f6565b5b6000612fb584828501612f7c565b91505092915050565b7f5468652073657373696f6e206861736e27742073746172742079657400000000600082015250565b6000612ff4601c83612853565b9150612fff82612fbe565b602082019050919050565b6000602082019050818103600083015261302381612fe7565b9050919050565b7f5468652073657373696f6e20697320656e646564000000000000000000000000600082015250565b6000613060601483612853565b915061306b8261302a565b602082019050919050565b6000602082019050818103600083015261308f81613053565b9050919050565b7f49742773206e6f7420796f7572207475726e0000000000000000000000000000600082015250565b60006130cc601283612853565b91506130d782613096565b602082019050919050565b600060208201905081810360008301526130fb816130bf565b9050919050565b7f49742773206e6f742061206c6574746572000000000000000000000000000000600082015250565b6000613138601183612853565b915061314382613102565b602082019050919050565b600060208201905081810360008301526131678161312b565b9050919050565b7f596f75206861766520616c726561647920757365642074686973206c6574746560008201527f7200000000000000000000000000000000000000000000000000000000000000602082015250565b60006131ca602183612853565b91506131d58261316e565b604082019050919050565b600060208201905081810360008301526131f9816131bd565b9050919050565b7f69742773206e6f7420796f7572207475726e0000000000000000000000000000600082015250565b6000613236601283612853565b915061324182613200565b602082019050919050565b6000602082019050818103600083015261326581613229565b9050919050565b7f4e487b7100000000000000000000000000000000000000000000000000000000600052601160045260246000fd5b60006132a682612400565b91506132b183612400565b9250827fffffffffffffffffffffffffffffffffffffffffffffffffffffffffffffffff038211156132e6576132e561326c565b5b828201905092915050565b7f4f776e61626c653a206e6577206f776e657220697320746865207a65726f206160008201527f6464726573730000000000000000000000000000000000000000000000000000602082015250565b600061334d602683612853565b9150613358826132f1565b604082019050919050565b6000602082019050818103600083015261337c81613340565b9050919050565b7f6e6f7420656e6f7567746820666f756e64730000000000000000000000000000600082015250565b60006133b9601283612853565b91506133c482613383565b602082019050919050565b600060208201905081810360008301526133e8816133ac565b9050919050565b60006133fa82612400565b91507fffffffffffffffffffffffffffffffffffffffffffffffffffffffffffffffff820361342c5761342b61326c565b5b600182019050919050565b7f596f7520617265206e6f7420746865206f776e6572206f66206120736573736960008201527f6f6e000000000000000000000000000000000000000000000000000000000000602082015250565b6000613493602283612853565b915061349e82613437565b604082019050919050565b600060208201905081810360008301526134c281613486565b9050919050565b7f4e487b7100000000000000000000000000000000000000000000000000000000600052603260045260246000fdfea2646970667358221220371b3edbcaa533962df6f3b397c194bd274a29d68801bad021db535239e063cb64736f6c634300080e0033",
  "immutableReferences": {
    "10": [
      {
        "length": 32,
        "start": 1670
      },
      {
        "length": 32,
        "start": 1754
      }
    ]
  },
  "source": "pragma solidity 0.8.14;\r\n\r\nimport \"@openzeppelin/contracts/access/Ownable.sol\";\r\nimport \"@chainlink/contracts/src/v0.8/interfaces/VRFCoordinatorV2Interface.sol\";\r\nimport \"@chainlink/contracts/src/v0.8/VRFConsumerBaseV2.sol\";\r\nimport \"@openzeppelin/contracts/token/ERC20/IERC20.sol\";\r\n\r\ncontract mainContract is VRFConsumerBaseV2, Ownable {\r\n    VRFCoordinatorV2Interface COORDINATOR;\r\n\r\n    address vrfCoordinator = 0x6168499c0cFfCaCD319c818142124B7A15E857ab;\r\n\r\n    bytes32 keyHash =\r\n        0xd89b2bf150e3b9e13446986e571fb9cab24b13cea0a43ea20a6049a85cc807cc;\r\n\r\n    IERC20 LINK = IERC20(0x01BE23585060835E02B77ef475b0Cc51aA1e0709);\r\n\r\n    uint32 callbackGasLimit = 100000;\r\n\r\n    uint16 requestConfirmations = 3;\r\n\r\n    uint64 s_subscriptionId;\r\n\r\n    uint256 public s_requestId;\r\n\r\n    string[] wordList;\r\n\r\n    uint256 sessionIndex = 0;\r\n\r\n    struct UserInfos {\r\n        bool isPlaying;\r\n        bool isPlayerTurn;\r\n        uint256 sessionId;\r\n        uint256 score;\r\n        uint256 currentBet;\r\n        string[] letterGuessed;\r\n    }\r\n\r\n    struct Session {\r\n        uint256 bet;\r\n        uint256 sessionId;\r\n        address players1;\r\n        address players2;\r\n        uint256 playerTurn;\r\n        string word;\r\n        bool isComplete;\r\n        bool started;\r\n        bool ended;\r\n    }\r\n\r\n    mapping(address => UserInfos) public userInfo;\r\n\r\n    mapping(uint256 => Session) public session;\r\n\r\n    event sessionCreated(uint256 _sessionIndex);\r\n\r\n    event sessionJoined(uint256 _sessionIndex);\r\n\r\n    event sessionEnded(uint256 bet, address winner);\r\n\r\n    constructor(uint64 subscriptionId) VRFConsumerBaseV2(vrfCoordinator) {\r\n        COORDINATOR = VRFCoordinatorV2Interface(vrfCoordinator);\r\n        s_subscriptionId = subscriptionId;\r\n    }\r\n\r\n    function addWord(string memory _word) public onlyOwner {\r\n        wordList.push(_word);\r\n    }\r\n\r\n    function createSession(uint256 _bet) public payable {\r\n        // string wordToGuess = requestRandomWords();\r\n        (bool sucess, ) = msg.sender.call{value: _bet}(\"\");\r\n        require(!userInfo[msg.sender].isPlaying, \"You are already playing\");\r\n        require(sucess, \"not enougth founds\");\r\n        sessionIndex++;\r\n        session[sessionIndex].bet = _bet;\r\n        session[sessionIndex].word = \"RandomWord\";\r\n        session[sessionIndex].sessionId = sessionIndex;\r\n        session[sessionIndex].players1 = msg.sender;\r\n        session[sessionIndex].ended = false;\r\n        userInfo[msg.sender].isPlaying = true;\r\n        userInfo[msg.sender].sessionId = sessionIndex;\r\n        emit sessionCreated(sessionIndex);\r\n    }\r\n\r\n    function joinSession(uint256 _sessionId) public payable {\r\n        require(session[_sessionId].bet > 0, \"Session error\");\r\n        require(!userInfo[msg.sender].isPlaying, \"You are already playing\");\r\n        require(!session[_sessionId].ended, \"Session is ended\");\r\n        (bool sucess, ) = msg.sender.call{value: session[_sessionId].bet}(\"\");\r\n        require(sucess, \"Not enougth funds sended\");\r\n        userInfo[msg.sender].sessionId = _sessionId;\r\n        session[sessionIndex].players2 = msg.sender;\r\n        session[sessionIndex].isComplete = true;\r\n    }\r\n\r\n    function abortSession(uint256 _sessionId) public {\r\n        require(\r\n            userInfo[msg.sender].sessionId == _sessionId,\r\n            \"It's not your session\"\r\n        );\r\n        require(\r\n            !session[_sessionId].started,\r\n            \"Your session have already started\"\r\n        );\r\n    }\r\n\r\n    function startSession() public {\r\n        uint256 index = userInfo[msg.sender].sessionId;\r\n        require(\r\n            session[index].players1 == msg.sender,\r\n            \"You are not the owner of a session\"\r\n        );\r\n        session[index].started = true;\r\n        userInfo[session[index].players1].isPlayerTurn = true;\r\n        userInfo[session[index].players2].isPlayerTurn = false;\r\n        userInfo[session[index].players2].isPlaying = true;\r\n        session[index].playerTurn = 0;\r\n    }\r\n\r\n    function guessWord(string memory _letter) public returns (bool) {\r\n        uint256 index = userInfo[msg.sender].sessionId;\r\n\r\n        require(session[index].started, \"The session hasn't start yet\");\r\n        require(!session[index].ended, \"The session is ended\");\r\n        require(userInfo[msg.sender].isPlayerTurn, \"It's not your turn\");\r\n        require(bytes(_letter).length == 1, \"It's not a letter\");\r\n        require(\r\n            !haveUsedThisLetter(msg.sender, _letter),\r\n            \"You have already used this letter\"\r\n        );\r\n        require(userInfo[msg.sender].isPlayerTurn, \"it's not your turn\");\r\n        bool winRound = false;\r\n\r\n        userInfo[msg.sender].isPlayerTurn = false;\r\n\r\n        userInfo[msg.sender].letterGuessed.push(_letter);\r\n\r\n        if (session[index].playerTurn == 0) {\r\n            userInfo[session[index].players1].isPlayerTurn = false;\r\n            userInfo[session[index].players2].isPlayerTurn = true;\r\n            session[index].playerTurn = 1;\r\n        } else if (session[index].playerTurn == 1) {\r\n            userInfo[session[index].players1].isPlayerTurn = true;\r\n            userInfo[session[index].players2].isPlayerTurn = false;\r\n            session[index].playerTurn = 0;\r\n        }\r\n\r\n        if (letterIsInWord(session[index].word, _letter) >= 1) {\r\n            userInfo[msg.sender].score += letterIsInWord(\r\n                session[index].word,\r\n                _letter\r\n            );\r\n            winRound = true;\r\n        }\r\n        if (userInfo[msg.sender].score == bytes(session[index].word).length)\r\n            endSession(index, msg.sender);\r\n\r\n        return winRound;\r\n    }\r\n\r\n    function haveUsedThisLetter(address _user, string memory _letter)\r\n        internal\r\n        view\r\n        returns (bool)\r\n    {\r\n        for (uint256 i = 0; i < userInfo[_user].letterGuessed.length; i++) {\r\n            if (bytes(_letter)[0] == bytes(userInfo[_user].letterGuessed[i])[0])\r\n                return true;\r\n        }\r\n        return false;\r\n    }\r\n\r\n    function letterIsInWord(string memory _word, string memory _letter)\r\n        internal\r\n        pure\r\n        returns (uint256)\r\n    {\r\n        uint256 isLetter = 0;\r\n        for (uint256 i = 0; i < bytes(_word).length; i++) {\r\n            if (bytes(_word)[i] == bytes(_letter)[0]) isLetter++;\r\n        }\r\n        return isLetter;\r\n    }\r\n\r\n    function endSession(uint256 _sessionId, address winner) internal {\r\n        session[_sessionId].ended = true;\r\n        resetUserInfos(session[_sessionId].players1);\r\n        resetUserInfos(session[_sessionId].players2);\r\n        payable(winner).transfer(session[_sessionId].bet);\r\n    }\r\n\r\n    function resetUserInfos(address user) internal {\r\n        userInfo[user].isPlaying = false;\r\n        userInfo[user].isPlayerTurn = false;\r\n        userInfo[user].sessionId = 0;\r\n        userInfo[user].score = 0;\r\n        delete userInfo[user].letterGuessed;\r\n    }\r\n\r\n    function requestRandomWords() external onlyOwner {\r\n        s_requestId = COORDINATOR.requestRandomWords(\r\n            keyHash,\r\n            s_subscriptionId,\r\n            requestConfirmations,\r\n            callbackGasLimit,\r\n            uint32(wordList.length)\r\n        );\r\n    }\r\n\r\n    function fulfillRandomWords(\r\n        uint256, /* requestId */\r\n        uint256[] memory randomWords\r\n    ) internal override {\r\n        // s_randomWords = randomWords;\r\n    }\r\n\r\n    function getWorkList() public view returns (string[] memory) {\r\n        return wordList;\r\n    }\r\n}\r\n",
  "sourcePath": "E:\\Rattrapage\\truffle\\contracts\\mainContract.sol",
  "compiler": {
    "name": "solc",
    "version": "0.8.14+commit.80d49f37.Emscripten.clang"
  },
  "schemaVersion": "3.4.3",
  "updatedAt": "2022-07-01T16:18:07.442Z",
  "networkType": "ethereum",
  "devdoc": {
    "kind": "dev",
    "methods": {
      "owner()": {
        "details": "Returns the address of the current owner."
      },
      "renounceOwnership()": {
        "details": "Leaves the contract without owner. It will not be possible to call `onlyOwner` functions anymore. Can only be called by the current owner. NOTE: Renouncing ownership will leave the contract without an owner, thereby removing any functionality that is only available to the owner."
      },
      "transferOwnership(address)": {
        "details": "Transfers ownership of the contract to a new account (`newOwner`). Can only be called by the current owner."
      }
    },
    "version": 1
  },
  "userdoc": {
    "kind": "user",
    "methods": {},
    "version": 1
  }
}